:020000040000fa
:080000000002040000000000f2
:020000040000fa
:0400080044040000ac
:020000040000fa
:04000c0044040000a8
:020000040000fa
:0400100044040000a4
:020000040000fa
:0400140044040000a0
:020000040000fa
:04001800440400009c
:020000040000fa
:04001c004404000098
:020000040000fa
:040020004404000094
:020000040000fa
:040024004404000090
:020000040000fa
:04002800440400008c
:020000040000fa
:04002c004404000088
:020000040000fa
:040030004404000084
:020000040000fa
:04003400fa020000cc
:020000040000fa
:04003800440400007c
:020000040000fa
:04003c004404000078
:020000040000fa
:040040004404000074
:020000040000fa
:040044004404000070
:020000040000fa
:04004800920300001f
:020000040000fa
:04004c004404000068
:020000040000fa
:040050004404000064
:020000040000fa
:0400540000040000a4
:020000040000fa
:04005800d6030000cb
:020000040000fa
:04005c00b2030000eb
:020000040000fa
:040060004404000054
:020000040000fa
:040064004404000050
:020000040000fa
:04006800440400004c
:020000040000fa
:04006c004404000048
:020000040000fa
:040070004404000044
:020000040000fa
:040074004404000040
:020000040000fa
:04007800440400003c
:020000040000fa
:04007c004404000038
:020000040000fa
:040080004404000034
:020000040000fa
:040084004404000030
:020000040000fa
:04008800440400002c
:020000040000fa
:04008c004404000028
:020000040000fa
:040090004404000024
:020000040000fa
:040094005c03000009
:020000040000fa
:04009800440400001c
:020000040000fa
:04009c004404000018
:020000040000fa
:0400a0004404000014
:020000040000fa
:0400a4004404000010
:020000040000fa
:0400a800440400000c
:020000040000fa
:0400ac004404000008
:020000040000fa
:0400b0004404000004
:020000040000fa
:0400b4004404000000
:020000040000fa
:0400b80044040000fc
:020000040000fa
:0400bc0044040000f8
:020000040000fa
:0400c00044040000f4
:020000040000fa
:0400c40044040000f0
:020000040000fa
:0400c80044040000ec
:020000040000fa
:0400cc0044040000e8
:020000040000fa
:0400d00044040000e4
:020000040000fa
:0400d40044040000e0
:020000040000fa
:0400d80044040000dc
:020000040000fa
:0400dc0044040000d8
:020000040000fa
:0400e00044040000d4
:020000040000fa
:0400e40044040000d0
:020000040000fa
:0400e80044040000cc
:020000040000fa
:0400ec0044040000c8
:020000040000fa
:0400f00044040000c4
:020000040000fa
:0400f40044040000c0
:020000040000fa
:0400f80044040000bc
:020000040000fa
:0400fc0044040000b8
:020000040000fa
:0401000044040000b3
:020000040000fa
:0401040044040000af
:020000040000fa
:0401080044040000ab
:020000040000fa
:04010c0044040000a7
:020000040000fa
:0401100044040000a3
:020000040000fa
:04011400440400009f
:020000040000fa
:04011800440400009b
:020000040000fa
:04011c004404000097
:020000040000fa
:040120004404000093
:020000040000fa
:04012400440400008f
:020000040000fa
:04012800440400008b
:020000040000fa
:04012c004404000087
:020000040000fa
:040130004404000083
:020000040000fa
:04013400440400007f
:020000040000fa
:04013800440400007b
:020000040000fa
:04013c004404000077
:020000040000fa
:040140004404000073
:020000040000fa
:04014400440400006f
:020000040000fa
:04014800440400006b
:020000040000fa
:04014c004404000067
:020000040000fa
:040150004404000063
:020000040000fa
:04015400440400005f
:020000040000fa
:04015800440400005b
:020000040000fa
:04015c004404000057
:020000040000fa
:040160004404000053
:020000040000fa
:04016400440400004f
:020000040000fa
:04016800440400004b
:020000040000fa
:04016c004404000047
:020000040000fa
:040170004404000043
:020000040000fa
:04017400440400003f
:020000040000fa
:04017800440400003b
:020000040000fa
:04017c004404000037
:020000040000fa
:040180004404000033
:020000040000fa
:04018400440400002f
:020000040000fa
:04018800440400002b
:020000040000fa
:04018c004404000027
:020000040000fa
:040190004404000023
:020000040000fa
:04019400440400001f
:020000040000fa
:04019800440400001b
:020000040000fa
:04019c004404000017
:020000040000fa
:0401a0004404000013
:020000040000fa
:0401a400440400000f
:020000040000fa
:0401a800440400000b
:020000040000fa
:0401ac004404000007
:020000040000fa
:0401b0004404000003
:020000040000fa
:0401b40044040000ff
:020000040000fa
:0401b80044040000fb
:020000040000fa
:0401bc0044040000f7
:020000040000fa
:0401c00044040000f3
:020000040000fa
:0401c40044040000ef
:020000040000fa
:0401c80044040000eb
:020000040000fa
:0401cc0044040000e7
:020000040000fa
:0401d00044040000e3
:020000040000fa
:0401d40044040000df
:020000040000fa
:0401d80044040000db
:020000040000fa
:0401dc0044040000d7
:020000040000fa
:0401e00044040000d3
:020000040000fa
:0401e40044040000cf
:020000040000fa
:0401e80044040000cb
:020000040000fa
:0401ec0044040000c7
:020000040000fa
:0401f00044040000c3
:020000040000fa
:0401f40044040000bf
:020000040000fa
:0401f80044040000bb
:020000040000fa
:0401fc0044040000b7
:020000040000fa
:0402000044040000b2
:020000040000fa
:0402040044040000ae
:020000040000fa
:0402080044040000aa
:020000040000fa
:04020c0044040000a6
:020000040000fa
:0402100044040000a2
:020000040000fa
:04021400440400009e
:020000040000fa
:04021800440400009a
:020000040000fa
:04021c004404000096
:020000040000fa
:040220004404000092
:020000040000fa
:04022400440400008e
:020000040000fa
:04022800440400008a
:020000040000fa
:04022c004404000086
:020000040000fa
:040230004404000082
:020000040000fa
:04023400440400007e
:020000040000fa
:04023800440400007a
:020000040000fa
:04023c004404000076
:020000040000fa
:040240004404000072
:020000040000fa
:04024400440400006e
:020000040000fa
:04024800440400006a
:020000040000fa
:04024c004404000066
:020000040000fa
:040250004404000062
:020000040000fa
:04025400440400005e
:020000040000fa
:04025800440400005a
:020000040000fa
:04025c004404000056
:020000040000fa
:040260004404000052
:020000040000fa
:04026400440400004e
:020000040000fa
:100400008f2021000eff2d000e018800000000004b
:10041000000020000000e000020032000001200087
:100420002002880014000700190107000000e00006
:1004300003003a00604d2200010020000200370056
:100440000000200001002000810f70000100320038
:100450000f000700000020000000e0000200320052
:100460000000020000000000b010020000000000c8
:100470000040da000000fe00200020000000e00044
:1004800002003200100020009001880000000600e9
:10049000a1028800800478000000eb001f003700f4
:1004a000e284440054a0b4009905ba00e2844400f8
:1004b00054a0b4009906ba00e284440054a0b400e9
:1004c0000006eb00476fde00fd07b200ae018800ba
:1004d000636ce10003003a000ad801000000eb0061
:1004e0000e003700606ce10008003a00004deb00a0
:1004f0000a05e800020039003420ec000af0a000f0
:100500008b05e900f9ff3e00040037006168e10057
:10051000010032000086eb000b00070019c7ba008b
:100520000e04e0001905ba0003003a000a00e000da
:10053000dbff3a0000000600fe07b200ae028800b2
:100540008a047800f5ff37000cd0a300e20f4d00bd
:100550001c003b0089027800354dba000a05e8000e
:10056000020039003420ec000af0a0008b05e900fd
:100570000f003200254dba000a05e80002003900dc
:100580003420ec000af0a0008b05e90008003200de
:100590000c00e0000600320015cdba000a05e800a4
:1005a000020039003420ec000af0a0008b05e900bd
:1005b0008984e80054a0b4000b00e000e2ff3a0098
:1005c000000006009902ba00055d78008b05e9007d
:1005d000f7ff3200c82ade00055d78008b05e900d0
:1005e000f3ff32000c00e000f1ff320019ddba0029
:1005f000eeff37003600f800809fbe00829fbe00ed
:10060000849fbe00869fbe000200fa000068a90019
:10061000207080006100600000f0a7000000ea0088
:100620000000e9004f00de00004078000080fb0081
:1006300061006000217080000100a10001007000d5
:10064000207088008e0d0700ff0f07009607070037
:10065000440c070000818000000f7800a10f2000eb
:100660001e00780081017800110009000300d80005
:1006700001f0a7008100ea008100e900cf08de0058
:10068000814078001e0178000200e80000818800a7
:100690000104e00001003200000d07000080fa00b4
:1006a0004f03be004f02be004f01be004f00be0010
:1006b0003600f90000400600809fbe000000fa00ee
:1006c0000368a900217080000020200000806000e5
:1006d00000f0a7000000ea000000e9004f00de0083
:1006e000004078000080fb00610060004900dd00f0
:1006f000217080000190a10001007000207088002e
:10070000e0808000f180800061004000e0804800cf
:10071000e0808800f18088000080fa004f00be0071
:1007200000400600809fbe000000fa000108a900fa
:10073000a07480000080ea004f00de0000407800d6
:100740000080fb004f00dd00a174800001f0a100db
:1007500001007000a07488000080fa004f00be0005
:1007600000400600801f78000000fa0001a8a900e0
:1007700000188000f08f880010188000009088001a
:100780002018800010908800301880002090880089
:10079000401880003090880010c0b3002df0b700e2
:1007a0000080fa004f007800004006003600f80094
:1007b000809fbe00829fbe00849fbe00869fbe00b9
:1007c0000000fa000188a9002181800010818000ca
:1007d000808f500002003200ea0e0700010037004f
:1007e0002670ef000080fa004f03be004f02be00eb
:1007f0004f01be004f00be003600f9000040060069
:100800003600f800809fbe00829fbe00849fbe001d
:10081000869fbe000000fa000168a9001011800048
:10082000640060000000e000010032002242a900e4
:1008300010118000620060000000e000060032003d
:100840002222a90005003700301180000040780006
:100850008d0f07000100370000000000101180001c
:10086000610060000000e000f7ff3a000080fa003d
:100870004f03be004f02be004f01be004f00be003e
:100880003600f900004006000040da000000fe00db
:100890000000050014002000ad033700f4ff2f0016
:1008a000ab0337000001be003f0007000470a70043
:1008b00003f0a1006509b100160032000d003500fb
:1008c0006828e10006003500f0ff2f00f1ff270047
:1008d0000300e00013003b000100280000000500b9
:1008e00000004000818048008502e900fcff3a00da
:1008f00008003700f88f420002003c008000eb0047
:10090000000005008100d1000080d3008502e800ce
:10091000fcff3a000300e00002003b006000100012
:10092000e0801800000006000001be001e00070065
:100930000470a70003f0a10003f8a30013003a001d
:100940006509b10010003200090035006928e10096
:1009500002003500010028000000050000004000f2
:10096000818048008502e900fcff3a000000060093
:10097000f88f4200050035008100d1000080d300cf
:100980008502e800fcff3a00000006008000eb0052
:10099000000005004f89de008201780087033700e0
:1009a0006011b80095033700c70ade00f107b200f6
:1009b000f50fb20008003200e1cf42000200320021
:1009c0000170a00024000500810f700001003200ba
:1009d0000408050044000500810f700002003a0081
:1009e000140005008502e9000000400081c04800b5
:1009f000fcff3b000170a0002400050007f8270061
:100a0000078361000638e10004003a00f707200080
:100a1000878361008703710001003a0003f0a200a0
:100a2000889fbe008a9fbe008c9fbe00470ade00e2
:100a30000480a100c71ade000580a100070028007d
:100a40000785600087856100f70f20000720e1001f
:100a50009e0032000728e1009c0032000106780069
:100a60000400e000b4003200f70720008780600037
:100a70000170a0000500e000c0003200f707200070
:100a8000878161000370a000050652000f003a0044
:100a90000b50e1000b0032000308e10002003a00b5
:100aa0000200e1007e0032000204500083845800fe
:100ab000040031000001fd008101fd008402fd0001
:100ac0008a05fd006044b800210037000520e100e0
:100ad00005003d000001fd008101fd008402fd00d4
:100ae0008a05fd00050652007a60e1000500350028
:100af0000170a1004722dd00848070008a807000b0
:100b0000630037006044b800ef02660007ff2f0063
:100b1000070666000500e00006003400f0831200be
:100b20008714dd000511de00071bdd0006017100e2
:100b30008519de007060e1000500350009047800c9
:100b400082047800030178008001eb0070065600f3
:100b50000b50e10003003a0002004000838048008f
:100b60000400370060041400e0841c0002005800f8
:100b7000838058000188a300060032008100d10064
:100b80000080d3008984d3000884d3000402e800e5
:100b9000270037000178a30025003a000100e0009b
:100ba000030032008186cf00698656000a003700b4
:100bb0008c0020000000e00004003a0009007800ea
:100bc000880478000004eb00700252008086cf0099
:100bd0000d0646000c06e9007060e10006003500d5
:100be0008000780009007800880478000004eb0099
:100bf00070065600700252000c00e0000c00340039
:100c00008c08dd00f00316000703de00868070000c
:100c10000c00dd00074bde00060070008c4cdd0090
:100c20000743de00868474000c44dd000c02520091
:100c30006120e1002000350061016000070028000c
:100c400087816400f7ff270087836400070374002f
:100c50000300e0000600320082037300040032004b
:100c60000000e800e08048000188a3000e003a0080
:100c7000f70f20000720e1004a003d000170a100ad
:100c80004722dd00810072008a8070000000be00f3
:100c90004f06be004f05be004f04be000000060018
:100ca0006000b800faff37008100d1000080d30057
:100cb0000402e800eeff37000401780089017400a7
:100cc000a10107008a807000f1ff3700f7010700db
:100cd000070278000001fd008101fd00f30107001b
:100ce00087027800850372000778a30004003200b1
:100cf0000001fd008101fd0006020700e4ff37004e
:100d0000850362000768a300080032000b50e10071
:100d100003003200f0ff2f00f1ff2700dcff370057
:100d20000001fd008101fd00d9ff37000468a30028
:100d3000d7ff3200faff3700f8ff270088836000f2
:100d40000b003a000000e00009003a008303640051
:100d500082837300020032000200be00ccff370025
:100d60000b50e100ceff3a000200be00c8ff370082
:100d700014002000810064003eff3700f8ff2700c8
:100d80008883610004003a000200e00002003a009b
:100d90008c007800beff370015002000830164003e
:100da00039ff370001f8270000002000810075009e
:100db000b7ff3700889fbe008a9fbe008c9fbe0091
:100dc0001b0020000202be00058668000600280005
:100dd000060666004709de00f20fb200820032000c
:100de0000243e80080003200c729de00f30fb200a2
:100df0007d0032000343e8007b003200f107b200bf
:100e00000170a000f507b2000570a000c708dd0062
:100e10004903de00868070004700dd00c72add0040
:100e20004923de00868272004722dd00030551005f
:100e30000403500085835800030031000000400087
:100e4000818048000a05e9008c1f78008a9fbe0057
:100e500004005000858058000402420085824a0048
:100e600000004000818048000005eb000004be0047
:100e70006033b8000406be000d48e10056003100a2
:100e8000110009004dccd8000c01b8000d02b800cb
:100e90008481410060824a008283530003045c0025
:100ea00084845c0060055d000a00e00025003a00d3
:100eb000800578000d40e10049003100880078008d
:100ec00007007800110009004d88d8000c01b80017
:100ed0000d02b8008481410060824a006003110065
:100ee00083835b0004045c00e0845c000900e00094
:100ef00021003a004f01be000300e0002b00320049
:100f0000e3016000070673008c817100010032006c
:100f1000640070004200de004e5edd000c007000d8
:100f2000c258de0001e0a00083010700cf01780075
:100f3000818071004f06be004f05be004f04be0009
:100f4000000006008c8343000d044c00e0844c003c
:100f500060054d000000e9000a00e000d4ff320007
:100f60008c8343000d044c00e0844c0060054d0070
:100f70000000e900ceff37000c0343008d834b00d7
:100f800060044c00e0844c000000e9000900e0002f
:100f9000d8ff32000c0343008d834b0060044c00eb
:100fa000e0844c000000e900d2ff37004200de0080
:100fb0004e5edd000c007000c258de0001e0a000b3
:100fc000cf0178000300e000daff3200600010007b
:100fd000e0801800d7ff3700f0ff2f00aaff37008e
:100fe000f0ff2f00b9ff37000404be002f010700f7
:100ff000870678000004fd008104fd002b01070036
:10100000078366000678a300030032000960a7008a
:101010000800be002c0037000d78a300020032004b
:101020000800be00280037000778a30026003a0019
:1010300001f0a10009f0a1000668a300030032003e
:10104000f1ff2700f0ff2f00baff37000d68a30063
:10105000030032000800be008c807000b5ff37002e
:101060000768a30007003a000648a3000300320007
:10107000f1ff2700f0ff2f00aeff37000d48a3005f
:10108000030032006000b8008c807000a9ff3700b8
:101090000748a3000400320001f8270000002000e8
:1010a0008c807000a3ff3700760107000004fd006c
:1010b0008104fd0002057800720107000802be00ed
:1010c0008a01780059ff37000160a0001202200059
:1010d0007281880097ff37000100e00012003200a3
:1010e0000500e00010003200889fbe008a9fbe000d
:1010f0008c9fbe000006eb0001f8a3000300320045
:1011000060001000e08018000cf0a00005f8a300bb
:101110000300320060021200e0821a000cf0a2000c
:101120008005eb0041ff37006000b80002000500b9
:10113000038368000700280007036300470ade00f6
:101140000480a100c71ade000580a100f70f20006f
:101150000720e100420032000728e1004000320091
:10116000889fbe008a9fbe008c1f7800f107b200e6
:10117000f307b2000400e000640032000170a00038
:101180000500e000680032000370a0008505420001
:10119000eb07b1000204b8000302b80084844400e5
:1011a00060854a00020ab800848444000a854a0027
:1011b000030ab80004054500040033000804d00009
:1011c0008984d2000a85d2008b05e9006158e100cc
:1011d0003d003500021020000901610003082000d5
:1011e00089816100f7072000878364000886730007
:1011f000c84cde00c853dd00878474004855de000b
:101200000300e00006003200820376000400320092
:101210008904e80060054d000a88a3000c003a002c
:10122000f70f20000758e10044003d000a70a100bc
:10123000c75ddd000a8575008a007300090078002b
:101240004f0678004f05be004f04be0000000600a8
:101250000a05d1008984d3008b05e800f0ff370030
:10126000881f7800060478009000070007027800c5
:101270000001fd008101fd008c000700870278005d
:10128000850372000778a300050032000001fd000d
:101290008101fd009f0007004f0478000000060058
:1012a000850372000748a30003003200f0ff2f00ff
:1012b000f1ff2700f8ff37000000200001f82700a9
:1012c00088807000f4ff3700880178004848dd000e
:1012d000808171004848de00c850dd0001007000c8
:1012e000c850de00060478000b01780016000700e5
:1012f00088807000d2ff37000500e0000500320052
:10130000170020003a0007009dff3700810370009e
:10131000f9ff3a00860078004f0678004f05be00be
:101320004f04be000000050083037100f9ff320086
:10133000270020002e00070094ff370001f8270047
:1013400086807000f4ff37000100e00026003200c4
:10135000610111007810e10023003c006022b80018
:101360007010e10004003500800278000100780070
:101370008000eb00700151000200e0000900340021
:1013800070031100062add00822ade008603dd00dc
:10139000878272000200de00860bdd00070070000d
:1013a0008208de0084817100f4ff2700048262005d
:1013b0008481710004002800848262006102600060
:1013c00005f0a6000000060004827100070032004c
:1013d0000000e800e0804800000006000002be00b7
:1013e0006000b800efff37006000b80000000600a2
:1013f000889fbe000004eb006138e10016003a004f
:101400000100e00008003a00c800de004800dd00ee
:10141000880020000100e00003003a00c800de0060
:101420004800dd00680444008184cf00e984540052
:10143000060034008908dd00f08314008703de0015
:10144000878070000900dd00090444006102140077
:101450004f04be00000006000300e00008003a0050
:10146000c811de004811dd00880020000300e00004
:1014700003003a00c811de004811dd006804440092
:101480008384cf00e9845400060034008919dd000c
:10149000f08314008713de00878171000911dd00dd
:1014a00009044400e1021400e9ff3700270020008e
:1014b00001f0a70017002000470bde00f60fb20076
:1014c000040032000643e8000a0032004702b3007d
:1014d0000000060001037800f607b2000603700062
:1014e00002003a000703b300000006008702b300c1
:1014f0000000060001037800f607b2000603700042
:10150000020032000770a000000006000760a00083
:10151000000006000478a300040032000578a30050
:10152000030032000168a30001003a000200be007f
:101530000160a00000000600810170002700320059
:101540008002eb0001f8a3000300320060001000ed
:10155000e080180015002000f4072000020242007d
:1015600020003400f70320008703600006042000f9
:101570000003630002082000000161004700de0054
:10158000c909dd0000807100c708de000600e00028
:101590000800320087037100060032001000b0001e
:1015a0000180b0000188a30002003200c108de0003
:1015b0000402e800f107b200f30f20000320e1006d
:1015c00003003d004722dd00810072002900370042
:1015d00001f827000000eb00260037006000b8008b
:1015e00000000600680212007f20e10002003400c3
:1015f0006000b8001f0037006011b8007020e100e3
:101600000400350080017800010078008000eb00c4
:10161000700252000400e00009003400f0031200e0
:101620000719dd008419de000703dd0086817100e3
:101630000400de00070bdd00060070008408de00f9
:10164000f7ff2700838363008703710006002800eb
:1016500003036300070032000700e00003003a00c4
:101660006101600002817300020032001000b000ce
:101670000180b0000500a6000000060001f0a000f7
:10168000000006004f0ade004709de00f107b20045
:10169000f20fb2000b003200f207b1000170a0009f
:1016a000c708dd00c901de00838070004700dd004f
:1016b0000400a6000000060060001000e080180092
:1016c00000000600810f700001003a0000000600d3
:1016d0008182cf000500e00010003e008082cf0034
:1016e000ee8242007028e1000400390007003e004d
:1016f000800078000000eb000e00370070831200bd
:101700008600de000500dd000a003700708352000d
:101710008600dd000000eb0006003700e282520088
:101720008508dd00708312000603de0086807000ed
:101730000500dd007507b0000501ea000400a60001
:101740000000060060001000e080180000000600a5
:10175000889fbe008a9fbe00841f78007c0007001f
:101760004f00780011003300f0ff2f00838f6c00d2
:1017700006003b00040565000a00a70008003700ca
:1017800009f0a6001000200008003700820f540066
:10179000838f5c00030039001000200001003e0030
:1017a0000000200009f0a7000000ea004f05be007d
:1017b0004f04be000000e00000000600881f780013
:1017c000030478000300e00007003d006000100003
:1017d000e080180060011900e081190002003b0060
:1017e00001f02d00030037000400070008f0a700f7
:1017f00001f0a0004f04780000000600889fbe00a2
:101800008a9fbe0000827000040271000482710091
:10181000260032000004be000200be006011b800c5
:101820006b092000950220000182cf000a003900d8
:101830000541b1000082cf00070039000541b10029
:101840000982cf00040039000541b1000882cf00b1
:10185000010039000541b10005425200120032007a
:101860000a003b0082817100610164008100d100a7
:101870000080d3008984d3000884d3008b05e8005e
:101880000442e800f7ff3a0007003700080444006c
:1018900089844c0000004800818048008b05e900e5
:1018a0000442e900f9ff3a00030007004f05be00bb
:1018b0004f04be000000060081002000618055003a
:1018c0000b003d000b00200061fe2f000100e10035
:1018d0001d00340082817100610164008904d1001f
:1018e0000884d3000000e800faff3a0071002000ed
:1018f0006100640003007000020060000900320013
:1019000061044400e0844c000988a5000500320011
:101910008b05e8006808e10002003a008904d10064
:101920000884d300f20f20000258e10005003d00ba
:10193000c75ddd00f907b2008980750008007800f6
:10194000000006000bf827008b007800000005005f
:101950000004be0014fc07000003be000405be0026
:101960000200be0010fc0700844f75000000060056
:101970000800fa000002be008501780003f0a10013
:1019800000017800a6fd200097f42300860f510087
:10199000878f59000d003e00f4ff2f00f5972300bc
:1019a000840f5100858f59005a003e00020020002c
:1019b00003b827001afc0700e0bf9f00f1bf9f009b
:1019c0000000200001f82300600037004f0ade000d
:1019d00005002000163d2500b7072400860f5100a2
:1019e000878f590019003e0036be2c006701240085
:1019f000860f5100878f59000a0036000400e0006e
:101a000004003200b2fd20009304240004fc07000f
:101a100048003700b2fd200093042400f7fb0700c4
:101a2000440037000400e00004003200b2fd200052
:101a300093fc2300fafb0700430037000001be00bf
:101a4000b0fd200091fc230019003700561d230033
:101a5000270e2400860f5100878f590016003e0084
:101a6000f6dd2e00f70a2400860f5100878f5900fb
:101a70000a0036000400e00004003200b2fd20003d
:101a8000930c2400e6fb070022003700b2fd200083
:101a9000930c2400d9fb07001e0037000400e0006f
:101aa0000100320001f0a20042be2c0063092400b4
:101ab000d2fb070024003700f4ff2f00f5f72700c2
:101ac000840f5100858f5900030036000001be00cd
:101ad000cafb07001d00370068815700e2000700bd
:101ae0006011b80063016000e10f5100e08f590000
:101af0000a003200e20f5100e08f59000b00320063
:101b0000e00f5100e08f59000d003a004fb89700e8
:101b1000dfb89700a60007000c0037004fb8970009
:101b2000dfb8970001f0a200070037004fb8970018
:101b3000dfb897009e00070001f0a2000300370005
:101b40004fb89700dfb89700200107000080fa0027
:101b5000000006000800fa00889fbe000004be00d6
:101b60000001be008300780001f0a10008007800a9
:101b7000a4fd200095f42300840f5000858f5800a9
:101b800018003e00f2ff2f00f3972300820f500051
:101b9000838f580011003e00f2ff2f00f307200052
:101ba000820f5000838f580005003e000200200085
:101bb000033820000800be005dfd07000400370068
:101bc0000200200003b827000800be0094fb0700b5
:101bd000c0bf9f00d1bf9f00710037000800be004a
:101be000680037004f49de0003002000143d250047
:101bf000b5072400840f5000858f58001f003e0059
:101c000034be2c0065012400840f5000858f5800dd
:101c10000e003e000200e00005003200b2fd200090
:101c200093fc23000800be007dfb0700590037002d
:101c3000b2fd200093fc23000800be006ffb0700ec
:101c40005b0007000004be00550037000200e00002
:101c500005003200b2fd2000930424000800be00fd
:101c60006ffb070046003700b2fd200093042400fc
:101c70000800be0061fb070041003700541d23002f
:101c8000250e2400840f5000858f58001d003e0053
:101c9000f4dd2e00f50a2400840f5000858f5800d3
:101ca0000c003e000200e0000500320042be2c00a5
:101cb000630924000800be0059fb0700e0ff37005d
:101cc00042be2c00630924000800be004bfb070045
:101cd000300037000200e00005003200b2fd2000b5
:101ce000930c24000800be004dfb070025003700c0
:101cf000b2fd2000930c24000800be003ffb07004b
:101d000020003700f2ff2f00f3f72700820f50006a
:101d1000838f5800040036000801be000800be0092
:101d200036fb0700c7ff37006c8157000800be0074
:101d30004d0007006011b80063016000e10f510021
:101d4000e08f590009003200e20f5100e08f590086
:101d500009003200e00f5100e08f59000b003a00fb
:101d60002fb89700bfb89700060037002fb897002c
:101d7000bfb89700b2ff37002fb89700bfb89700e1
:101d800001f0a20091000700aeff37002fb89700c6
:101d9000bfb89700060007000004be0009f0a200cb
:101da0000800be004f04be000080fa0000000600dc
:101db000889fbe008a9fbe008c9fbe000001be00af
:101dc000dbfc07000004be000001be00d8fc0700d9
:101dd0000005be000200200003f02b000800be003a
:101de000d3fc07000200200003f823000cfb0700cf
:101df0000006be00f2a92a00a3d223000a00be00fa
:101e0000cbfc07000001be000c00be0004fb070075
:101e10000006be000801be000a00be00c4fc0700a8
:101e20000005be0072a12900c37c23000800be008b
:101e3000bffc0700f243200063ab2300effa07006a
:101e40000001be000a00be00b9fc07000001be0090
:101e50000c00be00f2fa07004f06be004f05be00a0
:101e60004f04be00000006000800fa00889fbe0074
:101e70008a9fbe008c9fbe000005be000204780051
:101e80000001be008300780001f0a1000a00780084
:101e9000a2fd200093dc2400820f5000838f5800a5
:101ea0001d003e0032982f0023f223000a00be00de
:101eb0009ffc07000200200003b42400d8fa0700aa
:101ec0000200200003b42400ccfa07000006be0084
:101ed00074fa070080047800a2fd200093fc230020
:101ee0000c00be0092fc07000001be000a00be000c
:101ef000c2fa07000005be00325a280083282300da
:101f00000c00be008afc07000001be000a00be00f3
:101f1000bafa070026003700f2ff2f00f3f7270078
:101f2000820f5000838f5800060036000a01be0061
:101f30000a00be00b1fa0700008cbe008004eb006e
:101f40001c0037000a00be00500007000005be005c
:101f500032982f0023f2230075fc070002002000b6
:101f600003f02300aefa0700540007000203be008e
:101f70000002be00e4b79f00f5b79f0086bf9f0038
:101f800097bf9f000dfe070032982f0023f2230019
:101f900088fb07000001be000a00be0097fa070098
:101fa0006000b8002004980031049800efb4970056
:101fb000008cbe00090078004f06be004f05be0031
:101fc0004f04be000080fa0000000600889fbe009b
:101fd0008a9fbe008c9fbe000005be000001be00af
:101fe00053fc07000004be000a01be0050fc0700bd
:101ff0000006be004288280083c023000800be00ff
:102000004bfc0700b2aa2a00a3e223007bfa0700d8
:102010000001be000c00be0045fc07000001be0030
:102020000a00be007efa07000005be000801be00df
:102030000800be003efc07000001be000c00be0010
:102040003bfc07000006be00c2c3260063632300fa
:102050000800be0036fc0700f27c20000395230038
:1020600066fa07000001be000c00be0030fc07004d
:102070000001be000a00be0069fa07004f06be005c
:102080004f05be004f04be00000006006022b800ed
:102090006033b8000002be00f0ff2f00f1ff2f00f8
:1020a000f2ff2f00f3ff2700000062008180620032
:1020b0000201630083816300000006000003be008c
:1020c00039fa07006011b8000470a70007f0a100fa
:1020d0006509b1001b0032001200350086022000a5
:1020e0000628e10008003500f3ff2700f2ff2f006b
:1020f0006110b9000700e00018003b000300280051
:102100006000b80002000500000040008180480027
:1021100002014900838149008502e900faff3a0083
:1021200008003700f88f420002003c008000eb00fe
:10213000000005008100d1000080d3008502e80086
:10214000fcff3a000700e00004003b0060001000c4
:10215000e080180060011900e0811900000006000d
:020000040000fa
:102160001000fa00889fbe00b1080700910907001f
:10217000fa08070084cea80084aea800848ea800c8
:10218000856ea800754ea800040ea800052ea800b4
:1021900095eea800054ea800746ea8006a06070018
:1021a000560407003f040700490407006000b80018
:1021b000b08d8800c18d88006000b800f08d880067
:1021c000018e8800101b21008040eb000148780040
:1021d000c209070051050700590507006000b80053
:1021e000908f8800a18f88006000b800b08f8800b1
:1021f000c18f880003003700000000000100370095
:10220000000000000000eb00000f78000500370020
:1022100030090700204798002e4090006503070012
:102220001e0fe800460907009e0f5000f8ff3c0013
:102230000d090700e14f5000efff3a0006090700c3
:10224000200798000c0907002e009000100078006d
:102250008000eb00d2f9070032332300330524005d
:10226000b3fb07000200200003582400d1fa070046
:1022700030079800410798003e019000ce01900081
:102280000000200081202400cafa0700020020007c
:10229000030a2400d9f90700108e8800218e8800d7
:1022a0002e0090000080e800100078008000eb0015
:1022b000bbf9070032332300330524009cfb0700e1
:1022c0000200200003582400bafa070030079800e3
:1022d000410798003e019000ce01900000002000d0
:1022e00081202400b3fa070002002000030a240022
:1022f000c2f90700308e8800418e88002e009000c1
:1023000064004000100078008000eb00a4f9070092
:10231000323323003305240085fb07000200200030
:1023200003582400a3fa07003007980041079800db
:102330003e019000ce01900000002000812024008a
:102340009cfa070002002000030a2400abf90700f2
:10235000508e8800618e88002e009000660040003c
:10236000100078008000eb008df907003233230065
:10237000330524006efb07000200200003582400f0
:102380008cfa070030079800410798003e01900042
:10239000ce019000000020008120240085fa070073
:1023a00002002000030a240094f90700708e8800c0
:1023b000818e88002e009000680040001000780098
:1023c0008000eb0076f90700323323003305240048
:1023d00057fb0700020020000358240075fa07008d
:1023e00030079800410798003e019000ce01900010
:1023f00000002000812024006efa07000200200067
:10240000030a24007df90700908e8800a18e8800c1
:102410001080800070079800a10020007e009000ce
:1024200081017800110009000300d80001f0a70025
:102430008100ea008100e900cf08de0081407800d9
:102440007e0190000200e800108088000104e00096
:102450006bff3200308e8000418e800032f9070021
:1024600080447800508e8000618e80002ef9070035
:1024700000447800708e8000818e80002af9070069
:1024800000407800294f9800384f9800404f98003e
:102490006a0047000001780031002000000320009e
:1024a0005e02070057ff37000600fa000500210012
:1024b00095427800e0808000f18080004808de00ce
:1024c00000427800e0808000f18080004008de005b
:1024d00080417800e0808000f18080004809dd00c4
:1024e0004800de0000007100c808de0000417800ee
:1024f000e0808000f180800000407800054f780087
:1025000014479800234798003247980040479800a6
:1025100000d0bf000080fb00cf80de003201200031
:1025200003002000820f5000838f5800e2003e001d
:102530000006010033003700410037004a00370031
:102540005800370059003700660037006700370031
:10255000750037008700370099003700a500370065
:10256000b7003700720037008000370005003700e1
:10257000110037001200370020003700bd0037007f
:10258000cb0037000001eb006000b80088050700b1
:10259000120020006000b80085050700f0c0b300fd
:1025a00000f0b7000e017800510020000005200067
:1025b0001a020700c8003700c9000700c60037002c
:1025c0000001eb0000002000011f2c00780507002f
:1025d0001200200000002000011f2c0074050700dd
:1025e000f0c0b30000f0b7000e01780051002000e9
:1025f0000005200009020700b7003700b8000700f7
:10260000b50037001c30ef001e30ef000001eb007a
:102610006000b80066050700120020006000b800e6
:102620006305070010c0b30000f0b7000e0178008a
:102630005100200000052000f8010700a600370027
:10264000e2808000f3808000803e200001002000b6
:10265000800f5100818f59009a00360020c0b300ce
:1026600000f0b7009c0037000001eb0000002000e4
:10267000011f24004e05070012002000000020006a
:10268000011f24004a05070030c0b30000f0b70066
:102690000e0178005100200000052000df01070036
:1026a0008d0037008e0007008b0037000001eb0023
:1026b00000002000011224003d0507001200200048
:1026c0006000b8003a05070050c0b30000f0b70042
:1026d0000e0178005100200000052000cf01070006
:1026e0007d0037007e0007007b0037000001eb0013
:1026f00000002000011224002d0507001200200018
:1027000000002000011224002905070070c0b3005a
:1027100000f0b7000e0178005100200000052000f5
:10272000be0107006c0037006d0007006a0037002b
:102730000001eb0000002000011224001c0507002e
:10274000120020000000200001122c0018050700d4
:10275000d0c0b30000f0b7000e0178005100200097
:1027600000052000ad0107005b0037005c0007009a
:10277000590037000001eb00000020000112240086
:102780000b050700120020000000200001122c00a1
:102790000705070090c0b30000f0b700e08080009c
:1027a000f180800000007800208088000e01780011
:1027b0005100200000052000980107004600370066
:1027c000208080006101b900e0808000f1808000fd
:1027d0000001510081815900401f200001002000ac
:1027e000800f5100818f5900380036003c000700ef
:1027f000390037000001eb000000200001122c001e
:10280000eb04070012002000000020000112240049
:10281000e7040700b0c0b30000f0b700e08080001c
:10282000f180800000007800308088000e01780080
:102830005100200000052000780107002600370025
:10284000308080006101b900e0808000f18080006c
:102850000001510081815900401f2000010020002b
:10286000800f5100818f59001a0036001c000700ac
:10287000190037000001eb000000200001172c00b8
:10288000cb040700120020000000200001172400e4
:10289000c704070030c1b30000f0b7000e01780094
:1028a00051002000000520005c0107000a003700ed
:1028b0000b000700080037000070ef000000000068
:1028c0000500370000000000030037000000000092
:1028d00001003700000000000080fa000000060040
:1028e0000200fa00881f7800101b210010407800b9
:1028f000e14f50001d0132000040eb00004f780016
:10290000708e8000818e800018c0b300020020000d
:1029100003222400dff707000000e000010035007b
:102920000044eb000804e00019003200508e8000e3
:10293000618e800018c0b30002002000031f240035
:10294000d6f707000000e00001003c000044eb0067
:102950000804e0000e003200308e8000418e8000be
:1029600018c0b3000200200003222400cbf70700a8
:102970000000e00001003c000044eb000804e0001f
:102980000300320020c0b300004f78006e00370013
:10299000708e8000818e800018c0b300020020007d
:1029a00003222400bdf707000000e00001003c0006
:1029b0000044eb000804e00019003200508e800053
:1029c000618e800018c0b30002002000031f2400a5
:1029d000b2f707000000e00001003c000044eb00fb
:1029e0000804e0000e003200308e8000418e80002e
:1029f00018c0b3000200200003222400a5f707003e
:102a00000000e000010035000044eb000804e00095
:102a10000300320010c0b300004f78004a003700b6
:102a2000508e8000618e800018c0b300020020002c
:102a30000322240097f707000000e00001003500a2
:102a40000044eb000804e0000300320030c0b30093
:102a5000004f78003c003700708e8000818e80002f
:102a600018c0b30002002000032224008bf70700e7
:102a70000000e00001003c000044eb000804e0001e
:102a800019003200508e8000618e800018c0b300a3
:102a900002002000031f240080f707000000e00070
:102aa00001003c000044eb000804e0000e0032008e
:102ab000308e8000418e800018c0b30002002000dc
:102ac0000322240075f707000000e00001003c002d
:102ad0000044eb000804e000030032000040eb007b
:102ae000004f780018003700708e8000818e8000c3
:102af00018c0b300020020000322240065f707007d
:102b00000000e000010035000044eb000804e00094
:102b10000d003200308e8000418e800018c0b3005e
:102b200002002000032224005af707000000e00002
:102b3000010035000044eb000804e0000200320010
:102b400040c0b300004f78001e4078000004e00051
:102b500003003a0020c0b30008f0b7004d00370072
:102b60001e407800e24f500003003a0040c0b3001e
:102b700008f0b700470037001e407800e14f5000d2
:102b800003003a0060c0b30008f0b700410037000e
:102b90001e407800e44f500003003a0020c1b3000b
:102ba00008f0b7003b0037001e407800e34f5000ac
:102bb00038003a00108e8000218e800018c0b300cb
:102bc00002002000031f240034f707000000e0008b
:102bd00001003c000044eb000804e000100032005b
:102be000148e8000258e8000908e8000a18e800043
:102bf00018c0b3000001be000400be0027f70700a4
:102c00000000e00001003c000044eb000804e0008c
:102c10000300320080c0b30008f0b7001d00370089
:102c2000908e8000a18e800018c0b30002002000aa
:102c3000031f240019f707000000e00001003c001a
:102c40000044eb000804e00010003200948e800085
:102c5000a58e8000108e8000218e800018c0b300e9
:102c60000001be000400be000cf707000000e000f9
:102c700001003c000044eb000804e00003003200c7
:102c8000a0c0b30008f0b70002003700c0c0b30016
:102c900008f0b70008d0bf008080fb0000d0bf0064
:102ca0000080fb000000e900808f500030003200ff
:102cb00008d0bf0000f0b70084cea90084aea90000
:102cc000848ea900856ea900754ea9001e4078006b
:102cd000e14f500003003a0084cea80084aea80063
:102ce000230037001e407800e24f500003003a00f6
:102cf000856ea800754ea8001d0037001e407800a4
:102d0000e44f500003003a0084cea800754ea8009e
:102d1000170037001e407800e34f500014003a00bf
:102d200008d0bf00e84f500002003a00754ea800de
:102d30000f00370008d0bf00ea4f500002003a00f1
:102d400084cea8000a00370008d0bf00ec4f500026
:102d500007003a0084cea80084aea800848ea800a4
:102d6000856ea800754ea800010037000000000025
:102d70004f0478000080fa00000006000a00fa0004
:102d80002007980031079800420798000040eb00a8
:102d9000004f7800e0cfb3001e4f68002e00900077
:102da0004880de00004078001e4f68002e00900032
:102db000004078001e4f68003e0090004880de0012
:102dc000004078001e4f68003e00900000407800f0
:102dd0001e4f68000000eb00100798000800370045
:102de0001e009000ce00900000804000104078004f
:102df0001e4f68001e0090000000e80010079800b9
:102e00009e0090003e009000808f5000f4ff35003f
:102e10001e4078000080fa00000006001000fa0052
:102e2000889fbe008a1f78005007980061079800ad
:102e3000720798000f0478000f0078008004780073
:102e40006e00900066004000200798002e00900061
:102e50008000e900310798000000e8000000e80069
:102e60000000d100800040000f00780081874700fb
:102e70000000e8000000d10000004000400798007a
:102e80000040eb00004f78001e80fb00ce00900059
:102e900000804000e1cfb300014878001e4fe800f9
:102ea0001e80fb00de009000c888de0081407800b4
:102eb0004e01900000004100014878001e4fe800dc
:102ec0001e80fb00de009000814078004e019000e3
:102ed00000004100014878001e4fe8001e80fb0002
:102ee000ee009000c888de00814078004e0190001e
:102ef00000004100014878001e4fe8001e80fb00e2
:102f0000ee009000814078004e01900000004100ea
:102f1000014878001e4fe8000000eb001007980001
:102f20000000eb00100798000c0037001e80fb002b
:102f30009e0090007e019000810041009140780049
:102f40004e01900000004100014878001e4fe8004b
:102f50001e0090000000e800100798009e009000fe
:102f60006e009000808f5000f0ff35001e85fb0042
:102f70007e019000ee0090005e0090007fff070051
:102f8000ce0090008a804000804878001e4fe80004
:102f90004e009000ae009000bd0407008907780045
:102fa000880778004f0578004f04be000080fa00c3
:102fb000000006000400fa0020479800d08080003e
:102fc000e30f500025003200e30f500007003c00e3
:102fd000e10f500012003200e10f500017003c00da
:102fe0000000e0000800320051003700e50f5000fb
:102ff00030003200e50f50001f003500e60f500092
:103000003b0032004a0037002e409000e24f400063
:103010004a003a0010002000d08088004a003700a3
:103020002e4090000080fb004800dd00a08088005a
:1030300020002000d0808800430037002e40900000
:103040008080fb00a080800000804000a08088007d
:1030500030002000d08088003b0037002e409000d8
:103060000080fb004800dd00b080880040002000a8
:10307000d0808800340037002e4090008080fb0014
:10308000b080800000804000b08088001830ef00e1
:10309000b08080000000e0000300340050002000f9
:1030a000d08088002800370060002000d080880091
:1030b00025003700c08080000113210000804000ff
:1030c000ae40900001487800c08080000000e80019
:1030d000c0808800c1808000b0808000808f500058
:1030e0001800350060002000d080880016003700ee
:1030f000ae409000014f7800b1808000a080800039
:10310000021321001dff0700104798001e40900089
:103110009e4f500004003a00b1808000a0808000e3
:10312000021321000a0007001a30ef0006003700e2
:103130001a30ef000000000003003700000000001c
:1031400001003700000000000080fa0000000600c7
:103150000600fa00000f7800110798002207980077
:103160001e00780021052000810f50000a00320067
:1031700001072000810f50000b00320011052000d4
:10318000810f50000a003a002e0090001040780095
:1031900022000700070037002e0090001040780042
:1031a00006000700030037000000000001003700a0
:1031b000000000000080fa00000006000400fa0091
:1031c000204798002e4090000004e00003003200e9
:1031d0002e409000e14f500009003a00ae409000b0
:1031e000014f78000e01780011002000200520001a
:1031f0000aff0700101b2100ae4090000148780034
:103200002e409000e14f500002003a00e0c0b300b1
:1032100000f0b7000080fa00000006000200fa008b
:10322000004f78001e80fb00ea0f50000f003200b4
:10323000ea0f500005003c00e20f50000e00320083
:10324000e80f50000600320014003700ee0f500067
:103250000c003200f00f50000d0032000f0037005c
:1032600080c0b30000f0b7000c003700a0c0b3006e
:1032700000f0b7000900370020c0b30000f0b7002d
:1032800006003700e0c0b30000f0b70003003700cd
:1032900000c1b30000f0b700000000000080fa0099
:1032a000000006000000fa0005e1a9000421a900c1
:1032b0000068a9002068a80005e1a800000020001f
:1032c000a1372400280007000080fa000000060053
:1032d0000000fa001fe1a9001e21a9000368a9004f
:1032e0002368a8001fe1a80000002000a1472400d7
:1032f000910007000080fa00000006000000fa00bc
:1033000013e1a90011e1a9001061a8001021a90092
:1033100081088000f0fc2f00008060008008880099
:10332000707220005008880000e0200030088800fb
:10333000303920007008880000702800600888007c
:103340002142800080ff2f00008060000000a0006c
:10335000204288000108a9002108a80011e1a80066
:103360000080fa00000006000400fa00881f7800c0
:10337000008fbe0021088000f0fc2f00008060005c
:10338000200888001e0178009e019000001c2e007d
:1033900041c6240087f6070018c0b30002f02f00d2
:1033a000f37724003df507000000e00001003c0039
:1033b0000044eb000804e0005400320021088000c3
:1033c000f0fc2f00008060000040a0002008880072
:1033d0001e0178009e019000001c2e0041c62400b2
:1033e00074f60700020020000310240071f60700a5
:1033f00018c0b30002f02f00f377240027f5070070
:103400000000e00001003c000044eb000804e00084
:103410003200320021088000f0fc2f0000806000a4
:103420000050a000200888001e0178009e01900036
:10343000001c2e0041c624005ef60700020020009a
:10344000032824005bf6070018c0b30002f02f0029
:10345000f377240011f507000000e00001003c00b4
:103460000044eb000804e000100032002108800056
:103470000003200001007000200888001e01780071
:103480009e019000001c2e0041c6240049f6070052
:10349000020020000338240046f6070001f507006b
:1034a0000000780010088800200037001e01780016
:1034b0009e019000001c2e0041c624003df607002e
:1034c00002002000032824003af60700f5f4070064
:1034d0000000780010088800140037001e017800f2
:1034e0009e019000001c2e0041c6240031f607000a
:1034f00002002000031024002ef60700e9f4070064
:103500000000780010088800080037001e017800cd
:103510009e019000001c2e0041c6240025f60700e5
:10352000e0f4070000007800100888004f047800dd
:103530000080fa00000006000400fa00881f7800ee
:10354000008fbe00f1088000f0fc2f0000806000ba
:10355000f00888001e0178009e019000001c2e00db
:1035600041c6240013f6070018c0b30002f02f0074
:10357000f3772400c9f407000000e00001003c00dc
:103580000044eb000804e00054003200f108800021
:10359000f0fc2f00008060000040a000f0088800d0
:1035a0001e0178009e019000001c2e0041c62400e0
:1035b00000f607000200200003102400fdf50700bc
:1035c00018c0b30002f02f00f3772400b3f4070013
:1035d0000000e00001003c000044eb000804e000b3
:1035e00032003200f1088000f0fc2f000080600003
:1035f0000050a000f00888001e0178009e01900095
:10360000001c2e0041c62400eaf50700020020003d
:1036100003282400e7f5070018c0b30002f02f00cc
:10362000f37724009df407000000e00001003c0057
:103630000044eb000804e00010003200f1088000b4
:103640000003200001007000f00888001e017800cf
:103650009e019000001c2e0041c62400d5f50700f5
:103660000200200003382400d2f507008df4070083
:1036700000007800d0088800200037001e01780084
:103680009e019000001c2e0041c62400c9f50700d1
:103690000200200003282400c6f5070081f407007b
:1036a00000007800d0088800140037001e01780060
:1036b0009e019000001c2e0041c62400bdf50700ad
:1036c0000200200003102400baf5070075f407007b
:1036d00000007800d0088800080037001e0178003c
:1036e0009e019000001c2e0041c62400b1f5070089
:1036f0006cf4070000007800d00888004f047800c0
:103700000080fa00000006000000fa001c30ef0004
:103710001e30ef000080fa00000006000000fa00f2
:10372000c301a8000080eb00e00e88000080eb00e1
:10373000f00e8800c1e1a8000080fa000000060039
:103740000000fa00c305a8000080eb00e02e88000e
:103750000080eb00f02e8800c1e5a8000080fa0090
:10376000000006001800fa00889fbe008a9fbe0075
:103770005280800063808000028fbe0072808000d3
:10378000838080002207980033079800300e800065
:103790008000eb004007980051079800500e800011
:1037a0008000eb00c000dd00000020004e01900012
:1037b000de0190000200400083804800400798002e
:1037c00051079800302e80008000eb0060079800c1
:1037d00071079800502e80008000eb00c000dd00d3
:1037e000000020006e019000fe01900002004000e9
:1037f0008380480060079800710798004e00900091
:10380000de00900063f40700c2532e00737823009b
:1038100047f6070050808800618088006e009000a5
:10382000fe0090005bf40700c2532e0073782b005b
:103830003ff60700708088008180880050808000fb
:10384000618080001e0178009e0190006bf40700eb
:10385000000f9800110f9800708080008180800018
:103860002e019000be01900064f40700200f980024
:10387000310f980002002000a33724000e089000aa
:103880009e0890002af60700b08e8800c18e88003e
:1038900002002000a33724002e089000be089000ec
:1038a00023f60700d08e8800e18e8800b48e800059
:1038b000c58e8000d08e8000e18e80000001be00a9
:1038c0000400be0056f4070002002000030024009c
:1038d00038f50700f08e8800018f8800b48e8000d4
:1038e000c58e8000d08e8000e18e80000001be0079
:1038f0000400be0041f407009218240003e62300f0
:103900002cf50700108f8800218f8800908f800091
:10391000a18f8000308f8800418f8800b08f800099
:10392000c18f8000508f8800618f8800d08f800009
:10393000e18f8000708f8800818f8800388f800031
:10394000498f8000fa8e80000b8f8000d08f80001e
:10395000e18f800006f807000001be000a00be00eb
:10396000f3f5070002002000a337240011f507003b
:103970000001be000800be0029f40700908f8800f7
:10398000a18f8800588f8000698f8000fa8e800098
:103990000b8f8000d08f8000e18f80006df80700d2
:1039a0000001be000a00be00e1f507000200200091
:1039b000a3372400fff407000001be000800be008a
:1039c00017f40700b08f8800c18f8800788f8000bf
:1039d000898f8000108f8000218f800002002000de
:1039e000a3372400f3f407000001be000800be0066
:1039f0000bf40700d08f8800e18f8800d08f800003
:103a0000e18f800018c0b300b2fd200093042400b1
:103a1000a2f307000000e00001003c000044eb00be
:103a20000804e00007003200d08f8000e18f8000a2
:103a3000b2fd2000930c2400f0f30700d08f880023
:103a4000e18f8800d08f8000e18f800018c0b30024
:103a5000b2fd200093042c008ef307000000e0006c
:103a6000010035000044eb000804e00007003200cc
:103a7000d08f8000e18f8000b2fd2000930c2400e5
:103a8000e7f30700d08f8800e18f88004f05be0064
:103a90004f04be000080fa00000006001800fa0083
:103aa000e0808000f18080000001be008000eb001b
:103ab0000e007800c3010700908f8000a18f800066
:103ac0000001be00410020000e007800a4010700a4
:103ad000b08f8000c18f80000001be0081002000f7
:103ae0000e0078009e010700d08f8000e18f8000db
:103af0000001be00c10020000e0078009801070000
:103b0000f08e8000018f80000001be0001012000c6
:103b10000e00780092010700108f8000218f800036
:103b20000001be00410120000e0078008c0107005a
:103b30000e0178008101200010062000b7fc07006c
:103b40000080fa00000006000000fa00116080000a
:103b500080ff2f0000806000106088000096200029
:103b6000206088001161800000c02000010070000a
:103b70001061880023cca80023eca80030002000ae
:103b8000206188001162800000c0200001007000e8
:103b90001062880043cca80043eca800300020004d
:103ba0002062880001eca8000080fa0000000600f6
:103bb0000600fa00881f7800008fbe0022079800d8
:103bc00018c0b30002002000832c24001e007800df
:103bd0009e00900031f307000000e00001003c006f
:103be0000044eb000804e000040032000000200064
:103bf000812c2400008fbe000e00370018c0b300d7
:103c000002002000832c2c001e0078009e009000f3
:103c100020f307000000e000010035000044eb0045
:103c20000804e0000300320000002000812c2c007a
:103c3000008fbe002e009000e10f500005003a00fa
:103c40001e0178009e019000928d8800a38d88004f
:103c5000080037002e0090000000e00005003a0048
:103c60001e0078009e00900001f0a200d08d880018
:103c7000e18d88004f0478000080fa000000060003
:103c80000000fa00889fbe00b48d8000c58d8000c2
:103c9000908d8000a18d800018c0b3000001be008f
:103ca0000400be00fbf207000000e0000100350048
:103cb0000044eb000804e0000b003200988d800007
:103cc000a98d8000b08d8000c18d80000200200091
:103cd000030a240052f307000801be00c7000700d2
:103ce000b08d8800c18d8800b48d8000c58d8000a6
:103cf000908d8000a18d800018c0b3000001be002f
:103d00000400be00e5f207000000e00001003c00f6
:103d10000044eb000804e0000b003200988d8000a6
:103d2000a98d8000b08d8000c18d80000200200030
:103d3000030a240031f307000801be0097000700c2
:103d4000b08d8800c18d8800b08d8000c18d80004d
:103d500018c0b3006011b800d0f207000000e00006
:103d600001003c000044eb000804e0000e003200bb
:103d7000b08d8000c18d800002002000031c240053
:103d8000ebf40700020020008324240024f3070042
:103d9000e5f2070000007800306188002003200071
:103da000706188000e003700200320003061880019
:103db000b08d8000c18d800001f0a20002002000c3
:103dc000031c2400daf407000200200083242400ee
:103dd00013f30700d4f20700000078007061880038
:103de000f48d8000058e8000d08d8000e18d8000f4
:103df00018c0b3000001be000400be00a5f2070019
:103e00000000e000010035000044eb000804e00081
:103e10000b003200d88d8000e98d8000f08d80008d
:103e2000018e800002002000030a2400fcf207003b
:103e30000801be0071000700f08d8800018e880027
:103e4000f48d8000058e8000d08d8000e18d800093
:103e500018c0b3000001be000400be008ff20700ce
:103e60000000e00001003c000044eb000804e0001a
:103e70000b003200d88d8000e98d8000f08d80002d
:103e8000018e800002002000030a2400dbf20700fc
:103e90000801be0041000700f08d8800018e8800f7
:103ea000f08d8000018e800018c0b3006011b80052
:103eb0007af207000000e00001003d000044eb0042
:103ec0000804e0000e003200f08d8000018e8000ba
:103ed00002002000031c240095f4070002002000cb
:103ee00083242400cef207008ff207000000780040
:103ef0003062880020032000706288000e003700c6
:103f00002003200030628800f08d8000018e800048
:103f100001f0a20002002000031c240084f407002a
:103f20000200200083242400bdf207007ef2070077
:103f300000007800706288004f04be000080fa0024
:103f4000000006000400fa00881f7800008fbe0001
:103f500018c0b3006011b8001e0078009e009000e9
:103f60004ef207000000e00001003d000044eb00bd
:103f70000804e000030032001e0078009e0090005c
:103f8000030037001e0078009e00900001f0a200a0
:103f90004f0478000080fa00000006000800fa00d4
:103fa000881f7800008fbe00220798003307980012
:103fb00018c0b3002e019000be0190001e007800d2
:103fc0009e00900035f207000000e00001003c0078
:103fd0000044eb000804e000030032001e007800fb
:103fe0009e009000020037002e009000be0090005e
:103ff0004f0478000080fa00000006000800fa0074
:10400000881f7800008fbe002207980033079800b1
:1040100018c0b3002e019000be0190001e00780071
:104020009e0090001bf207000000e0000100350038
:104030000044eb000804e000030032001e0078009a
:104040009e009000020037002e009000be009000fd
:104050004f0478000080fa00000006000c00fa000f
:10406000881f7800008fbe00220798003307980051
:10407000440798005507980018c0b3004e019000ff
:10408000de0190001e0078009e00900003f2070001
:104090000000e00001003c000044eb000804e000e8
:1040a000040032004e019000de019000028fbe003d
:1040b0000e00370018c0b3002e019000be01900022
:1040c0001e0078009e009000f2f107000000e00062
:1040d000010035000044eb000804e000030032005a
:1040e0002e019000be019000028fbe001e007800dd
:1040f0009e0090004f0478000080fa000000060047
:104100000400fa00008fbe00b2fd200093042400da
:104110001e0078009e00900026f307000200200099
:104120004333240002f407000080fa000000060078
:104130000400fa00008fbe00b2fd200093042400aa
:104140001e0078009e009000f9f307000200200096
:104150004333240017f307000080fa000000060034
:104160000c00fa00200798003107980042079800d9
:104170005307980068004700100798000000eb0004
:10418000000f78000a0037003e0090001e0040003b
:10419000ae009000008040009e0078001e0190005c
:1041a0008100410091407800014878001e0fe8002e
:1041b0001e007800e30f5000f3ff34000080fa0087
:1041c000000006000c00fa00200798003107980054
:1041d00042079800530798006800470010079800ae
:1041e0000000eb00000f78000b0037003e0090004d
:1041f0001e004000ae009000008040003200200011
:104200009e0051001e019000810041009140780005
:10421000014878001e0fe8001e007800e30f5000f0
:10422000f2ff34000080fa00000006000c00fa00e3
:10423000200798003107980042079800530798001c
:1042400068004700100798000000eb00000f78009e
:104250000a0037003e0090001e004000ae009000b3
:10426000008040009e0078001e0190008100410007
:1042700091407800014878001e0fe8001e00780089
:10428000e70f5000f3ff34000080fa000000060042
:104290000600fa0010079800210798000040eb0084
:1042a000004f78005c000700ae009000810f5000c6
:1042b000110034000040eb00004f7800060037008a
:1042c0001e80fb009e00900000804000104078009f
:1042d0000b0007001e4fe8009e80fb002e009000a0
:1042e000808f5000f6ff35002f0007000000e0002f
:1042f00001003a00230007000080fa0000000600d9
:104300000200fa00004f78001081800001032100b4
:10431000008040001e487800108180000000e80006
:104320001081880011818000f0072000808f5000ec
:10433000010034002230ef000080fa000000060087
:104340000200fa002081800001032100008040006b
:1043500010407800004f7800208180000000e800c5
:104360002081880021818000f0072000808f50008c
:10437000010034002430ef001e4078000080fa0075
:10438000000006000200fa0010c0b30026f0b700db
:10439000ebff0700004f78001e80fb002011880013
:1043a0000080fa00000006000000fa0026d0bf00de
:1043b0000080fb000080fa00000006000200fa0006
:1043c0000000eb00000f7800118180002081800048
:1043d000808f500004003400118180002081800013
:1043e000008f50000900370011818000208180007b
:1043f000808f500005003d002181800010818000e9
:104400000080500001082000010f40001e007800cd
:104410000080fa00000006000000fa00e7ff070035
:1044200001082000008050000080fa000000060013
:104430000000fa00413a800000fc2f00008060007c
:104440007001b300403a8800313a800000e02f004c
:10445000808060008005200001007000303a8800f4
:10446000213a8000f0f32f0000806000203a88009d
:10447000213a800000fe2f00008060000000a000b4
:10448000203a88001200200080072000a1092000a7
:10449000337420008049780081497800824978008f
:1044a000103a8000000178000200a00060042000a3
:1044b000710520002374200080497800814978002c
:1044c0008249780000000000113a800000002700b7
:1044d0008080600000002100808f5000faff3a00c9
:1044e0005927a800c13a800080ff2f00008060009b
:1044f0000000a000c03a8800d03a80007000b300ed
:10450000d03a8800c13a8000f0f12f00808060002e
:10451000000c200001007000c03a880059a7a800d4
:1045200059e7a80000000000c13a80000000240004
:10453000008060000000e000fbff3200000000008f
:10454000113a800000022000008060000000e000be
:10455000fbff32000080fa00000006000000fa00b5
:1045600021e3a9002143a80001198000f0cf2f000a
:1045700000806000001988002043a9000119800014
:10458000000e200001007000001988001119800041
:10459000f0ff210000806000101988002343a8006c
:1045a00011198000f0cf2f000080600010198800e2
:1045b0001119800030f82f00008060000040a0003a
:1045c000101988002203a9002223a90025e3a900cd
:1045d000f0c0b30024e3b70021198000f00f2e00d3
:1045e0008080600000f02000010070002019880029
:1045f0003303a9001e0ea8001f0ea8001f2ea8003e
:104600001f4ea8001f6ea8001f8ea8003003a80030
:104610003103a8003123a8003143a8003163a8006a
:104620004119800000fe2f000080600040198800c2
:1046300028e3a90001a8a90021a8a80021e3a80057
:104640000080fa00000006000000fa002023a80005
:104650000080fa00000006000000fa00e01f2100c0
:104660000080fa00000006000000fa002dd0bf0014
:104670000080fa00000006000000fa002d70ef0034
:104680000080fa00000006000200fa00004f7800e7
:10469000420007000000e0000c0034004081800070
:1046a000010b2100008040001e48780040818000fe
:1046b0000000e8004081880041818000f007200070
:1046c000808f5000010034002830ef000080fa0095
:1046d000000006000200fa0050818000010b21005a
:1046e0000080400010407800004f7800508180002a
:1046f0000000e8005081880051818000f007200010
:10470000808f5000010034002a30ef001e407800f6
:104710000080fa00000006000000fa0041818000dd
:1047200050818000808f50000200320010c0b30022
:10473000010037000040eb000080fa000000060096
:104740000200fa000000eb00000f780041818000b9
:1047500050818000808f500004003400418180002f
:1047600050818000008f5000090037004181800097
:1047700050818000808f500005003d0051818000f5
:10478000408180000080500001082000010f40009f
:104790001e0078000080fa00000006000000fa0009
:1047a000e7ff070001082000008050000080fa00a9
:1047b000000006000000fa000e2eef001e2eef0093
:1047c0003e2eef002e2eef004e2eef006e2eef004d
:1047d00080cea90080aea900808ea900816ea900bc
:1047e000714ea90091eea900000ea900012ea900aa
:1047f000014ea900706ea9002f000700213680002d
:1048000000f82f0080806000e004200001007000ac
:10481000203688004134800000fc2f0000806000ba
:104820000000a000403488000136800000f82f000e
:1048300080806000100620000100700000368800b3
:1048400001368000f00f28008080600000102700f3
:104850000100700000368800e135800000f82f006c
:1048600080806000e007200001007000e0358800d3
:10487000e1358000f00f28008080600000c0270034
:1048800001007000e0358800020007000080fa0097
:10489000000006000000fa002174200062042000dd
:1048a00073052000824878008348780042c7a8003a
:1048b0000080fa00000006000000fa0021742000c9
:1048c0006204200073052000824878008348780045
:1048d00042c7a9000080fa00000006000000fa00ac
:1048e0002002a9000111800090ff2f0000806000cd
:1048f0000011880020a2a9002062a8001008200052
:104900004011880023a2a90023e2a9000188a90080
:104910002188a80011118000f0f32f0000806000b2
:10492000101188000168a9002168a80021e2a800f0
:104930002342a8000080fa00000006000600fa00ea
:1049400010079800210798000040eb00004f780006
:104950000040eb00004f78000e0037000000000020
:104960001111800000202000008060000000e000a5
:10497000fbff3a001e009000104078000080fb0012
:10498000201188001e0090000000e8001007980029
:104990001e4fe8009e80fb002e009000808f50008c
:0c49a000eeff35000080fa000000060069
:020000040000fa
:1049ac00001000000a000000800000001c10000035
:1049bc000600000080000000b01100004e00000056
:1049cc0080000000fe1100000a00000080000000c2
:1049dc002c100000020000008000000030100000cd
:1049ec008000000080000000221000000600000083
:1049fc0080000000b010000080000000800000006b
:104a0c00281000000400000080000000301100009d
:104a1c00800000008000000014100000080000005e
:104a2c00800000000a1000000a0000008000000056
:104a3c002e100000020000008000000000000000aa
:020000040000fa
:104a4c000e00fa00000f7800120798002307980058
:104a5c003407980045079800560798006707980098
:104a6c001e0078001e019000ae0190000288be006e
:104a7c001e0078003eb99700ceb9970062009800ee
:104a8c00730098001e0078003e019000ce0190004b
:104a9c0022009800330098001e0078001eb9970081
:104aac00aeb9970002089800130898001e00780011
:104abc005e019000ee0190004200980053009800b7
:104acc001e0078007eb197008eb9970022089800de
:0c4adc00330898000080fa00000006007b
:020000040000fa
:0200000401f009
:04000800cfffff0027
:020000040000fa
:0200000401f009
:04000c00f9ffff00f9
:020000040000fa
:0200000401f009
:040010005bffff0093
:020000040000fa
:0200000401f009
:040014007fffff006b
:020000040000fa
:0200000401f009
:04001800cfffff0017
:020000040000fa
:0200000401f009
:04001c00deffff0004
:020000040000fa
:0200000401f009
:04002000cfffff000f
:00000001FF
