:020000040000fa
:080000000002040000000000f2
:020000040000fa
:0400080050040000a0
:020000040000fa
:04000c00500400009c
:020000040000fa
:040010005004000098
:020000040000fa
:040014005004000094
:020000040000fa
:040018005004000090
:020000040000fa
:04001c00500400008c
:020000040000fa
:040020005004000088
:020000040000fa
:040024005004000084
:020000040000fa
:040028005004000080
:020000040000fa
:04002c00500400007c
:020000040000fa
:040030005004000078
:020000040000fa
:04003400fa020000cc
:020000040000fa
:040038005004000070
:020000040000fa
:04003c00500400006c
:020000040000fa
:040040005004000068
:020000040000fa
:040044005004000064
:020000040000fa
:040048009e03000013
:020000040000fa
:04004c00500400005c
:020000040000fa
:040050005004000058
:020000040000fa
:040054000c04000098
:020000040000fa
:04005800e2030000bf
:020000040000fa
:04005c00be030000df
:020000040000fa
:040060005004000048
:020000040000fa
:040064005004000044
:020000040000fa
:040068005004000040
:020000040000fa
:04006c00500400003c
:020000040000fa
:040070005004000038
:020000040000fa
:040074005004000034
:020000040000fa
:040078005004000030
:020000040000fa
:04007c00500400002c
:020000040000fa
:040080005004000028
:020000040000fa
:040084005004000024
:020000040000fa
:040088005004000020
:020000040000fa
:04008c00500400001c
:020000040000fa
:040090005004000018
:020000040000fa
:040094004403000021
:020000040000fa
:040098005004000010
:020000040000fa
:04009c00500400000c
:020000040000fa
:0400a0005004000008
:020000040000fa
:0400a4005004000004
:020000040000fa
:0400a8005004000000
:020000040000fa
:0400ac0050040000fc
:020000040000fa
:0400b00050040000f8
:020000040000fa
:0400b40050040000f4
:020000040000fa
:0400b80050040000f0
:020000040000fa
:0400bc0050040000ec
:020000040000fa
:0400c00050040000e8
:020000040000fa
:0400c40050040000e4
:020000040000fa
:0400c80050040000e0
:020000040000fa
:0400cc0050040000dc
:020000040000fa
:0400d00050040000d8
:020000040000fa
:0400d40050040000d4
:020000040000fa
:0400d80050040000d0
:020000040000fa
:0400dc0050040000cc
:020000040000fa
:0400e00050040000c8
:020000040000fa
:0400e40050040000c4
:020000040000fa
:0400e80050040000c0
:020000040000fa
:0400ec0050040000bc
:020000040000fa
:0400f00050040000b8
:020000040000fa
:0400f40050040000b4
:020000040000fa
:0400f80050040000b0
:020000040000fa
:0400fc0050040000ac
:020000040000fa
:0401000050040000a7
:020000040000fa
:0401040050040000a3
:020000040000fa
:04010800500400009f
:020000040000fa
:04010c00500400009b
:020000040000fa
:040110005004000097
:020000040000fa
:040114005004000093
:020000040000fa
:04011800500400008f
:020000040000fa
:04011c00500400008b
:020000040000fa
:040120005004000087
:020000040000fa
:040124005004000083
:020000040000fa
:04012800500400007f
:020000040000fa
:04012c00500400007b
:020000040000fa
:040130005004000077
:020000040000fa
:040134005004000073
:020000040000fa
:04013800500400006f
:020000040000fa
:04013c00500400006b
:020000040000fa
:040140005004000067
:020000040000fa
:040144005004000063
:020000040000fa
:04014800500400005f
:020000040000fa
:04014c00500400005b
:020000040000fa
:040150005004000057
:020000040000fa
:040154005004000053
:020000040000fa
:04015800500400004f
:020000040000fa
:04015c00500400004b
:020000040000fa
:040160005004000047
:020000040000fa
:040164005004000043
:020000040000fa
:04016800500400003f
:020000040000fa
:04016c00500400003b
:020000040000fa
:040170005004000037
:020000040000fa
:040174005004000033
:020000040000fa
:04017800500400002f
:020000040000fa
:04017c00500400002b
:020000040000fa
:040180005004000027
:020000040000fa
:040184005004000023
:020000040000fa
:04018800500400001f
:020000040000fa
:04018c00500400001b
:020000040000fa
:040190005004000017
:020000040000fa
:040194005004000013
:020000040000fa
:04019800500400000f
:020000040000fa
:04019c00500400000b
:020000040000fa
:0401a0005004000007
:020000040000fa
:0401a4005004000003
:020000040000fa
:0401a80050040000ff
:020000040000fa
:0401ac0050040000fb
:020000040000fa
:0401b00050040000f7
:020000040000fa
:0401b40050040000f3
:020000040000fa
:0401b80050040000ef
:020000040000fa
:0401bc0050040000eb
:020000040000fa
:0401c00050040000e7
:020000040000fa
:0401c40050040000e3
:020000040000fa
:0401c80050040000df
:020000040000fa
:0401cc0050040000db
:020000040000fa
:0401d00050040000d7
:020000040000fa
:0401d40050040000d3
:020000040000fa
:0401d80050040000cf
:020000040000fa
:0401dc0050040000cb
:020000040000fa
:0401e00050040000c7
:020000040000fa
:0401e40050040000c3
:020000040000fa
:0401e80050040000bf
:020000040000fa
:0401ec0050040000bb
:020000040000fa
:0401f00050040000b7
:020000040000fa
:0401f40050040000b3
:020000040000fa
:0401f80050040000af
:020000040000fa
:0401fc0050040000ab
:020000040000fa
:0402000050040000a6
:020000040000fa
:0402040050040000a2
:020000040000fa
:04020800500400009e
:020000040000fa
:04020c00500400009a
:020000040000fa
:040210005004000096
:020000040000fa
:040214005004000092
:020000040000fa
:04021800500400008e
:020000040000fa
:04021c00500400008a
:020000040000fa
:040220005004000086
:020000040000fa
:040224005004000082
:020000040000fa
:04022800500400007e
:020000040000fa
:04022c00500400007a
:020000040000fa
:040230005004000076
:020000040000fa
:040234005004000072
:020000040000fa
:04023800500400006e
:020000040000fa
:04023c00500400006a
:020000040000fa
:040240005004000066
:020000040000fa
:040244005004000062
:020000040000fa
:04024800500400005e
:020000040000fa
:04024c00500400005a
:020000040000fa
:040250005004000056
:020000040000fa
:040254005004000052
:020000040000fa
:04025800500400004e
:020000040000fa
:04025c00500400004a
:020000040000fa
:040260005004000046
:020000040000fa
:040264005004000042
:020000040000fa
:10040000af5721000eff2d000e01880000000000f4
:10041000000020000000e000020032000001200087
:1004200020028800140007001f0107000000e00000
:1004300003003a00a09222000100200002003700d1
:100440000000200001002000810f70000100320038
:100450000f000700000020000000e0000200320052
:100460000000020000000000e21002000000000096
:100470000040da000000fe00200020000000e00044
:1004800002003200100020009001880000000600e9
:10049000a1028800800478000000eb001f003700f4
:1004a000e284440054a0b4009905ba00e2844400f8
:1004b00054a0b4009906ba00e284440054a0b400e9
:1004c0000006eb00476fde00fd07b200ae018800ba
:1004d000636ce10003003a000ad801000000eb0061
:1004e0000e003700606ce10008003a00004deb00a0
:1004f0000a05e800020039003420ec000af0a000f0
:100500008b05e900f9ff3e00040037006168e10057
:10051000010032000086eb000b00070019c7ba008b
:100520000e04e0001905ba0003003a000a00e000da
:10053000dbff3a0000000600fe07b200ae028800b2
:100540008a047800f5ff37000cd0a300e20f4d00bd
:100550001c003b0089027800354dba000a05e8000e
:10056000020039003420ec000af0a0008b05e900fd
:100570000f003200254dba000a05e80002003900dc
:100580003420ec000af0a0008b05e90008003200de
:100590000c00e0000600320015cdba000a05e800a4
:1005a000020039003420ec000af0a0008b05e900bd
:1005b0008984e80054a0b4000b00e000e2ff3a0098
:1005c000000006009902ba00055d78008b05e9007d
:1005d000f7ff3200c82ade00055d78008b05e900d0
:1005e000f3ff32000c00e000f1ff320019ddba0029
:1005f000eeff37003600f800809fbe00829fbe00ed
:10060000849fbe00869fbe000200fa000068a90019
:1006100037120700040807006e0f0700670c070079
:10062000a90e070000818000000f7800a10f2000b4
:100630001e00780081017800110009000300d80035
:1006400001f0a7008100ea008100e900cf08de0088
:10065000814078001e0178000200e80000818800d7
:100660000104e00001003200281007000080fa00b9
:100670004f03be004f02be004f01be004f00be0040
:100680003600f900004006003600f800809fbe00ea
:10069000829fbe00849fbe00869fbe000000fa00bd
:1006a0000368a90021708000002020000080600005
:1006b00000f0a7000000ea000000e9004f00de00a3
:1006c000004078000080fb00610060004900dd0010
:1006d000217080000190a10001007000207088004e
:1006e000e0808000f180800061004000e0804800f0
:1006f000e0808800f1808800e0808000f180800048
:100700004206200003002000c2000700e00f500056
:10071000e08f580002003a00520c0700c40c07009a
:100720000080fa004f03be004f02be004f01be0022
:100730004f00be003600f90000400600809fbe005a
:100740000000fa000108a900a07480000080ea00ff
:100750004f00de00004078000080fb004f00dd000d
:10076000a174800001f0a10001007000a074880055
:100770000080fa004f00be0000400600801f780095
:100780000000fa0001a8a9000018800080ab8800d2
:100790001018800090ab880020188000a0ab880063
:1007a00030188000b0ab880040188000c0ab8800d3
:1007b00010c0b3002df0b7000080fa004f007800a1
:1007c000004006003600f800809fbe00829fbe00f9
:1007d000849fbe00869fbe000000fa000188a90029
:1007e0002181800010818000808f50000200320043
:1007f0000e110700010037002670ef000080fa009c
:100800004f03be004f02be004f01be004f00be00ae
:100810003600f900004006003600f800809fbe0058
:10082000829fbe00849fbe00869fbe000000fa002b
:100830000168a90010118000640060000000e00061
:10084000010032002242a900101180006200600005
:100850000000e000060032002222a9000500370057
:100860003011800000407800b1110700010037000e
:100870000000000010118000610060000000e00036
:10088000f7ff3a000080fa004f03be004f02be009f
:100890004f01be004f00be003600f90000400600c8
:1008a0000040da000000fe000000050014002000f7
:1008b000b0033700f4ff2f00ae0337000001be0085
:1008c0003f0007000470a70003f0a1006509b10014
:1008d000160032000d0035006828e10006003500e2
:1008e000f0ff2f00f1ff27000300e00013003b00a2
:1008f0000100280000000500000040008180480041
:100900008502e900fcff3a0008003700f88f42003a
:1009100002003c008000eb00000005008100d100d7
:100920000080d3008502e800fcff3a000300e000ed
:1009300002003b0060001000e0801800000006008c
:100940000001be001e0007000470a70003f0a10014
:1009500003f8a30013003a006509b100100032004b
:10096000090035006928e100020035000100280077
:100970000000050000004000818048008502e90079
:10098000fcff3a0000000600f88f42000500350029
:100990008100d1000080d3008502e800fcff3a000e
:1009a000000006008000eb00000005004f89de001b
:1009b000820178008a0337006011b800980337007d
:1009c000c70ade00f107b200f50fb20008003200de
:1009d000e1cf4200020032000170a00024000500b7
:1009e000810f70000100320004080500440005007a
:1009f000810f700002003a00140005008502e90032
:100a00000000400081c04800fcff3b000170a000d6
:100a100024000500df0307000400be0000000600fc
:100a200007f82700078361000638e10004003a0058
:100a3000f7072000878361008703710001003a00f7
:100a400003f0a200889fbe008a9fbe008c9fbe005c
:100a5000470ade000480a100c71ade000580a1005d
:100a6000070028000785600087856100f70f2000d8
:100a70000720e1009e0032000728e1009c003200c0
:100a8000010678000400e000b4003200f7072000ff
:100a9000878060000170a0000500e000c000320007
:100aa000f7072000878161000370a000050652004f
:100ab0000f003a000b50e1000b0032000308e10088
:100ac00002003a000200e1007e0032000204500001
:100ad00083845800040031000001fd008101fd0005
:100ae0008402fd008a05fd006044b8002100370043
:100af0000520e10005003d000001fd008101fd0031
:100b00008402fd008a05fd00050652007a60e100be
:100b1000050035000170a1004722dd0084807000cf
:100b20008a807000630037006044b800ef026600fe
:100b300007ff2f00070666000500e00006003400ee
:100b4000f08312008714dd000511de00071bdd00b5
:100b5000060171008519de007060e10005003500b6
:100b60000904780082047800030178008001eb001a
:100b7000700656000b50e10003003a0002004000ee
:100b8000838048000400370060041400e0841c00e7
:100b900002005800838058000188a300060032003c
:100ba0008100d1000080d3008984d3000884d30061
:100bb0000402e800270037000178a30025003a006e
:100bc0000100e000030032008186cf0069865600f4
:100bd0000a0037008c0020000000e00004003a000a
:100be00009007800880478000004eb0070025200cd
:100bf0008086cf000d0646000c06e9007060e1001b
:100c0000060035008000780009007800880478002c
:100c10000004eb0070065600700252000c00e00069
:100c20000c0034008c08dd00f00316000703de0022
:100c3000868070000c00dd00074bde0006007000af
:100c40008c4cdd000743de00868474000c44dd001c
:100c50000c0252006120e1002000350061016000bb
:100c60000700280087816400f7ff2700878364005e
:100c7000070374000300e0000600320082037300e3
:100c8000040032000000e800e08048000188a30072
:100c90000e003a00f70f20000720e1004a003d0057
:100ca0000170a1004722dd00810072008a8070007f
:100cb0000000be004f06be004f05be004f04be0040
:100cc000000006006000b800faff37008100d10084
:100cd0000080d3000402e800eeff37000401780032
:100ce00089017400a10107008a807000f1ff3700bc
:100cf000f7010700070278000001fd008101fd00f7
:100d0000f301070087027800850372000778a300cb
:100d1000040032000001fd008101fd000602070011
:100d2000e4ff3700850362000768a3000800320073
:100d30000b50e10003003200f0ff2f00f1ff27000d
:100d4000dcff37000001fd008101fd00d9ff370005
:100d50000468a300d7ff3200faff3700f8ff27002e
:100d6000888360000b003a000000e00009003a00b0
:100d70008303640082837300020032000200be001d
:100d8000ccff37000b50e100ceff3a000200be005e
:100d9000c8ff370014002000810064003eff3700c8
:100da000f8ff27008883610004003a000200e00099
:100db00002003a008c007800beff370015002000ca
:100dc0008301640039ff370001f82700000020008c
:100dd00081007500b7ff3700889fbe008a9fbe0064
:100de0008c9fbe001b0020000202be00058668002a
:100df00006002800060666004709de00f20fb20072
:100e0000820032000243e80080003200c729de0081
:100e1000f30fb2007d0032000343e8007b00320094
:100e2000f107b2000170a000f507b2000570a00044
:100e3000c708dd004903de00868070004700dd0042
:100e4000c72add004923de00868272004722dd00ca
:100e5000030551000403500085835800030031004e
:100e600000004000818048000a05e9008c1f7800de
:100e70008a9fbe0004005000858058000402420092
:100e800085824a0000004000818048000005eb0098
:100e90000004be006033b8000406be000d48e10047
:100ea00056003100110009004dccd8000c01b800eb
:100eb0000d02b8008481410060824a0082835300a1
:100ec00003045c0084845c0060055d000a00e000af
:100ed00025003a00800578000d40e100490031000e
:100ee0008800780007007800110009004d88d800bc
:100ef0000c01b8000d02b8008481410060824a00f4
:100f00006003110083835b0004045c00e0845c00e8
:100f10000900e00021003a004f01be000300e0009c
:100f20002b003200e3016000070673008c81710022
:100f300001003200640070004200de004e5edd0001
:100f40000c007000c258de0001e0a0008301070021
:100f5000cf017800818071004f06be004f05be00b2
:100f60004f04be00000006008c8343000d044c00bb
:100f7000e0844c0060054d000000e9000a00e0003c
:100f8000d4ff32008c8343000d044c00e0844c00fd
:100f900060054d000000e900ceff37000c03430060
:100fa0008d834b0060044c00e0844c000000e9009d
:100fb0000900e000d8ff32000c0343008d834b0092
:100fc00060044c00e0844c000000e900d2ff3700d0
:100fd0004200de004e5edd000c007000c258de00f4
:100fe00001e0a000cf0178000300e000daff32004a
:100ff00060001000e0801800d7ff3700f0ff2f00de
:10100000aaff3700f0ff2f00b9ff37000404be002d
:101010002f010700870678000004fd008104fd0011
:101020002b010700078366000678a3000300320047
:101030000960a7000800be002c0037000d78a3004f
:10104000020032000800be00280037000778a30025
:1010500026003a0001f0a10009f0a1000668a300f3
:1010600003003200f1ff2700f0ff2f00baff370026
:101070000d68a300030032000800be008c807000e1
:10108000b5ff37000768a30007003a000648a30031
:1010900003003200f1ff2700f0ff2f00aeff370002
:1010a0000d48a300030032006000b8008c8070007f
:1010b000a9ff37000748a3000400320001f8270009
:1010c000000020008c807000a3ff3700760107002d
:1010d0000004fd008104fd00020578007201070094
:1010e0000802be008a01780059ff37000160a000a5
:1010f000120220007281880097ff37000100e00093
:10110000120032000500e00010003200889fbe008f
:101110008a9fbe008c9fbe000006eb0001f8a30072
:101120000300320060001000e08018000cf0a00006
:1011300005f8a3000300320060021200e0821a00ea
:101140000cf0a2008005eb0041ff37006000b80002
:1011500002000500038368000700280007036300fe
:10116000470ade000480a100c71ade000580a10046
:10117000f70f20000720e100420032000728e100bd
:1011800040003200889fbe008a9fbe008c1f7800fe
:10119000f107b200f307b2000400e000640032007f
:1011a0000170a0000500e000680032000370a0009c
:1011b00085054200eb07b1000204b8000302b80045
:1011c0008484440060854a00020ab8008484440094
:1011d0000a854a00030ab8000405450004003300ec
:1011e0000804d0008984d2000a85d2008b05e9006a
:1011f0006158e1003d003500021020000901610046
:101200000308200089816100f707200087836400bc
:1012100008867300c84cde00c853dd008784740064
:101220004855de000300e00006003200820376002d
:10123000040032008904e80060054d000a88a3001c
:101240000c003a00f70f20000758e10044003d0071
:101250000a70a100c75ddd000a8575008a00730071
:10126000090078004f0678004f05be004f04be000d
:10127000000006000a05d1008984d3008b05e80030
:10128000f0ff3700881f7800060478009000070000
:10129000070278000001fd008101fd008c000700bd
:1012a00087027800850372000778a30005003200ea
:1012b0000001fd008101fd009f0007004f04780040
:1012c00000000600850372000748a30003003200f7
:1012d000f0ff2f00f1ff2700f8ff3700000020008b
:1012e00001f8270088807000f4ff3700880178003b
:1012f0004848dd00808171004848de00c850dd00ac
:1013000001007000c850de00060478000b01780070
:101310001600070088807000d2ff37000500e0004b
:1013200005003200170020003a0007009dff37003b
:1013300081037000f9ff3a00860078004f067800bc
:101340004f05be004f04be0000000500830371007e
:10135000f9ff3200270020002e00070094ff37001d
:1013600001f8270086807000f4ff37000100e000dc
:1013700026003200610111007810e10023003c00da
:101380006022b8007010e10004003500800278008f
:10139000010078008000eb00700151000200e000c5
:1013a0000900340070031100062add00822ade00e5
:1013b0008603dd00878272000200de00860bdd00fe
:1013c000070070008208de0084817100f4ff2700ae
:1013d000048262008481710004002800848262001b
:1013e0006102600005f0a6000000060004827100a2
:1013f000070032000000e800e0804800000006001e
:101400000002be006000b800efff37006000b800c7
:1014100000000600889fbe000004eb006138e10078
:1014200016003a000100e00008003a00c800de00a3
:101430004800dd00880020000100e00003003a00c1
:10144000c800de004800dd00680444008184cf004d
:10145000e9845400060034008908dd00f08314009c
:101460008703de00878070000900dd000904440066
:10147000610214004f04be00000006000300e000fb
:1014800008003a00c811de004811dd008800200085
:101490000300e00003003a00c811de004811dd003f
:1014a000680444008384cf00e984540006003400bb
:1014b0008919dd00f08314008713de008781710035
:1014c0000911dd0009044400e1021400e9ff3700be
:1014d0002700200001f0a70017002000470bde00c6
:1014e000f60fb200040032000643e8000a003200a2
:1014f0004702b3000000060001037800f607b200bf
:101500000603700002003a000703b3000000060063
:101510008702b3000000060001037800f607b2005e
:1015200006037000020032000770a00000000600f1
:101530000760a000000006000478a3000400320049
:101540000578a300030032000168a30001003a00ff
:101550000200be000160a0000000060081017000d2
:10156000270032008002eb0001f8a30003003200e4
:1015700060001000e080180015002000f407200033
:101580000202420020003400f703200087036000bd
:10159000060420000003630002082000000161002f
:1015a0004700de00c909dd0000807100c708de00c9
:1015b0000600e000080032008703710006003200d8
:1015c0001000b0000180b0000188a30002003200ca
:1015d000c108de000402e800f107b200f30f2000aa
:1015e0000320e10003003d004722dd00810072007e
:1015f0002900370001f827000000eb002600370023
:101600006000b80000000600680212007f20e100c0
:10161000020034006000b8001f0037006011b800fd
:101620007020e1000400350080017800010078009e
:101630008000eb00700252000400e000090034005a
:10164000f00312000719dd008419de000703dd0036
:10165000868171000400de00070bdd0006007000cb
:101660008408de00f7ff270083836300870371008f
:101670000600280003036300070032000700e000b3
:1016800003003a0061016000028173000200320031
:101690001000b0000180b0000500a60000000600a8
:1016a00001f0a000000006004f0ade004709de003e
:1016b000f107b200f20fb2000b003200f207b100e6
:1016c0000170a000c708dd00c901de008380700042
:1016d0004700dd000400a6000000060060001000c6
:1016e000e080180000000600810f700001003a0041
:1016f000000006008182cf000500e00010003e00df
:101700008082cf00ee8242007028e10004003900a0
:1017100007003e00800078000000eb000e0037005c
:10172000708312008600de000500dd000a0037002d
:10173000708352008600dd000000eb0006003700d9
:10174000e28252008508dd00708312000603de008d
:10175000868070000500dd007507b0000501ea0015
:101760000400a6000000060060001000e0801800e1
:1017700000000600889fbe008a9fbe00841f78007c
:101780007c0007004f00780011003300f0ff2f00ad
:10179000838f6c0006003b00040565000a00a7006b
:1017a0000800370009f0a6001000200008003700ec
:1017b000820f5400838f5c0003003900100020006a
:1017c00001003e000000200009f0a7000000ea0030
:1017d0004f05be004f04be000000e0000000060000
:1017e000881f7800030478000300e00007003d0034
:1017f00060001000e080180060011900e08119000d
:1018000002003b0001f02d00030037000400070038
:1018100008f0a70001f0a0004f04780000000600c7
:10182000889fbe008a9fbe00008270000402710083
:1018300004827100260032000004be000200be00d7
:101840006011b8006b092000950220000182cf00d2
:101850000a0039000541b1000082cf0007003900bd
:101860000541b1000982cf00040039000541b100f3
:101870000882cf00010039000541b1000542520045
:10188000120032000a003b00828171006101640095
:101890008100d1000080d3008984d3000884d30064
:1018a0008b05e8000442e800f7ff3a000700370024
:1018b0000804440089844c000000480081804800ee
:1018c0008b05e9000442e900f9ff3a000300070034
:1018d0004f05be004f04be0000000600810020003e
:1018e000618055000b003d000b00200061fe2f00c1
:1018f0000100e1001d00340082817100610164007b
:101900008904d1000884d3000000e800faff3a00ff
:10191000710020006100640003007000020060009c
:101920000900320061044400e0844c000988a500ed
:10193000050032008b05e8006808e10002003a006b
:101940008904d1000884d300f20f20000258e1007e
:1019500005003d00c75ddd00f907b2008980750014
:1019600008007800000006000bf827008b007800c4
:10197000000005000004be0011fc07000003be00cb
:101980000405be000200be000dfc0700844f750078
:10199000000006006022b800060220000000d0000f
:1019a0008180d2000482d2008582d2000000a00093
:1019b0000202520083825a000300310002024200f8
:1019c00083824a000000a1000603e900f3ff3a0009
:1019d000000006000800fa000002be008501780041
:1019e00003f0a10000017800a6fd200097f4230079
:1019f000860f5100878f59000d003e00f4ff2f0025
:101a0000f5972300840f5100858f59005a003e003e
:101a10000200200003b827000afc0700e0bf9f0077
:101a2000f1bf9f000000200001f823006000370094
:101a30004f0ade0005002000163d2500b7072400f0
:101a4000860f5100878f590019003e0036be2c00ca
:101a500067012400860f5100878f59000a00360065
:101a60000400e00004003200b2fd200093042400d2
:101a7000f4fb070048003700b2fd20009304240067
:101a8000e7fb0700440037000400e00004003200d8
:101a9000b2fd200093fc2300eafb0700430037005f
:101aa0000001be00b0fd200091fc230019003700aa
:101ab000561d2300270e2400860f5100878f5900e2
:101ac00016003e00f6dd2e00f70a2400860f5100b6
:101ad000878f59000a0036000400e000040032003d
:101ae000b2fd2000930c2400d6fb07002200370033
:101af000b2fd2000930c2400c9fb07001e00370034
:101b00000400e0000100320001f0a20042be2c00ff
:101b100063092400c2fb070024003700f4ff2f00f4
:101b2000f5f72700840f5100858f59000300360018
:101b30000001be00bafb07001d0037006881570096
:101b4000e20007006011b80063016000e10f51007e
:101b5000e08f59000a003200e20f5100e08f590077
:101b60000b003200e00f5100e08f59000d003a00e9
:101b70004fb89700dfb89700a60007000c003700a9
:101b80004fb89700dfb8970001f0a20007003700b8
:101b90004fb89700dfb897009e00070001f0a20041
:101ba000030037004fb89700dfb897002001070007
:101bb0000080fa00000006000800fa00889fbe00be
:101bc0000004be000001be008300780001f0a10007
:101bd00008007800a4fd200095f42300840f500035
:101be000858f580018003e00f2ff2f00f397230066
:101bf000820f5000838f580011003e00f2ff2f002b
:101c0000f3072000820f5000838f580005003e002c
:101c100002002000033820000800be004dfd070030
:101c2000040037000200200003b827000800be00af
:101c300084fb0700c0bf9f00d1bf9f007100370029
:101c40000800be00680037004f49de000300200096
:101c5000143d2500b5072400840f5000858f5800df
:101c60001f003e0034be2c0065012400840f50008c
:101c7000858f58000e003e000200e0000500320093
:101c8000b2fd200093fc23000800be006dfb07009e
:101c900059003700b2fd200093fc23000800be006d
:101ca0005ffb07005b0007000004be005500370023
:101cb0000200e00005003200b2fd20009304240081
:101cc0000800be005ffb070046003700b2fd2000a1
:101cd000930424000800be0051fb070041003700b8
:101ce000541d2300250e2400840f5000858f5800ba
:101cf0001d003e00f4dd2e00f50a2400840f500084
:101d0000858f58000c003e000200e0000500320004
:101d100042be2c00630924000800be0049fb0700f6
:101d2000e0ff370042be2c00630924000800be001b
:101d30003bfb0700300037000200e00005003200e6
:101d4000b2fd2000930c24000800be003dfb0700fc
:101d500025003700b2fd2000930c24000800be00cf
:101d60002ffb070020003700f2ff2f00f3f72700ba
:101d7000820f5000838f5800040036000801be0017
:101d80000800be0026fb0700c7ff37006c81570024
:101d90000800be004d0007006011b800630160003c
:101da000e10f5100e08f590009003200e20f5100ad
:101db000e08f590009003200e00f5100e08f590018
:101dc0000b003a002fb89700bfb897000600370005
:101dd0002fb89700bfb89700b2ff37002fb8970011
:101de000bfb8970001f0a20091000700aeff3700d6
:101df0002fb89700bfb89700060007000004be0088
:101e000009f0a2000800be004f04be000080fa00e6
:101e100000000600889fbe008a9fbe008c9fbe0007
:101e20000001be00cbfc07000004be000001be00a4
:101e3000c8fc07000005be000200200003f02b00d4
:101e40000800be00c3fc07000200200003f82300c6
:101e5000fcfa07000006be00f2a92a00a3d2230064
:101e60000a00be00bbfc07000001be000c00be0063
:101e7000f4fa07000006be000801be000a00be001a
:101e8000b4fc07000005be0072a12900c37c23003a
:101e90000800be00affc0700f243200063ab230044
:101ea000dffa07000001be000a00be00a9fc07001f
:101eb0000001be000c00be00e2fa07004f06be00a3
:101ec0004f05be004f04be00000006000800fa00e7
:101ed000889fbe008a9fbe008c9fbe000005be008a
:101ee000020478000001be008300780001f0a10028
:101ef0000a007800a2fd200093dc2400820f50002d
:101f0000838f58001d003e0032982f0023f22300db
:101f10000a00be008ffc07000200200003b424006a
:101f2000c8fa07000200200003b42400bcfa07002e
:101f30000006be0061fa070080047800a2fd2000c0
:101f400093fc23000c00be0082fc07000001be00d1
:101f50000a00be00b2fa07000005be00325a28008f
:101f6000832823000c00be007afc07000001be009d
:101f70000a00be00aafa070026003700f2ff2f0071
:101f8000f3f72700820f5000838f580006003600b9
:101f90000a01be000a00be00a1fa0700008cbe00c4
:101fa0008004eb001c0037000a00be005000070050
:101fb0000005be0032982f0023f2230065fc0700c5
:101fc0000200200003f023009efa070054000700df
:101fd0000203be000002be00e4b79f00f5b79f00f9
:101fe00086bf9f0097bf9f00fdfd070032982f001e
:101ff00023f2230078fb07000001be000a00be00a8
:1020000087fa07006000b8002004980031049800a7
:10201000efb49700008cbe00090078004f06be00a8
:102020004f05be004f04be000080fa00000006000d
:10203000889fbe008a9fbe008c9fbe000005be0028
:102040000001be0043fc07000004be000a01be0000
:1020500040fc07000006be004288280083c0230021
:102060000800be003bfc0700b2aa2a00a3e223003e
:102070006bfa07000001be000c00be0035fc070033
:102080000001be000a00be006efa07000005be0097
:102090000801be000800be002efc07000001be00c3
:1020a0000c00be002bfc07000006be00c2c32600c9
:1020b000636323000800be0026fc0700f27c2000ba
:1020c0000395230056fa07000001be000c00be0075
:1020d00020fc07000001be000a00be0059fa0700fc
:1020e0004f06be004f05be004f04be0000000600b4
:1020f0006022b8006033b8000002be00f0ff2f007d
:10210000f1ff2f00f2ff2f00f3ff27000000620015
:102110008180620002016300838163000000060089
:102120000003be0026fa07006011b8000470a70083
:1021300007f0a1006509b1001b0032001200350054
:10214000860220000628e10008003500f3ff270082
:10215000f2ff2f006110b9000700e00018003b00fb
:10216000030028006000b8000200050000004000e5
:102170008180480002014900838149008502e9000d
:10218000faff3a0008003700f88f420002003c00d6
:102190008000eb00000005008100d1000080d3002a
:1021a0008502e800fcff3a000700e00004003b0065
:1021b00060001000e080180060011900e081190043
:0421c0000000060015
:020000040000fa
:1021c4001000fa00889fbe00c20a0700a20b070095
:1021d4000b0b070084cea80084aea800848ea80050
:1021e400856ea800754ea800040ea800052ea80050
:1021f40095eea800054ea800746ea80060070700bd
:1022040057060700400607004a0607006000b800aa
:10221400c0a18800d1a188006000b80000a2880095
:1022240011a288001000200090a188006011b8005d
:102234000000200001f823006b070700d00b070003
:1022440051080700590807006000b800e0a388009f
:10225400f1a388006000b80000a4880011a48800dd
:1022640001003700000000000000eb00000f7800c0
:1022740005003700400b0700204798002e409000cf
:102284004f0307001e0fe800560b07009e0f500077
:10229400f8ff3c001d0b0700e14f5000f1ff3a002e
:1022a400160b0700200798001c0b07002e00900057
:1022b400100078008000eb00bef9070032332300e1
:1022c40033052400a2fb0700020020000358240069
:1022d400c0fa070030079800410798003e019000bb
:1022e400ce0190000000200081202400b9fa0700ec
:1022f40002002000030a2400c8f9070020a2880075
:1023040031a288002e0090000080e80010007800c0
:102314008000eb00a7f907003233230033052400c3
:102324008bfb07000200200003582400a9fa0700d1
:1023340030079800410798003e019000ce019000bc
:102344000000200081202400a2fa070002002000df
:10235400030a2400b1f9070040a2880051a28800b2
:102364002e00900064004000100078008000eb0014
:1023740090f90700323323003305240074fb07006f
:10238400020020000358240092fa07003007980046
:10239400410798003e019000ce019000000020000b
:1023a400812024008bfa070002002000030a240085
:1023b4009af9070060a2880071a288002e0090009c
:1023c40066004000100078008000eb0079f90700f7
:1023d40032332300330524005dfb07000200200094
:1023e400035824007bfa070030079800410798003f
:1023f4003e019000ce0190000000200081202400c6
:1024040074fa070002002000030a240083f907007d
:1024140080a2880091a288002e00900068004000ed
:10242400100078008000eb0062f9070032332300cb
:102434003305240046fb0700020020000358240053
:1024440064fa070030079800410798003e019000a5
:10245400ce01900000002000812024005dfa0700d6
:1024640002002000030a24006cf90700a0a28800df
:10247400b1a288001080800070079800a10020009d
:102484007e00900081017800110009000300d8004b
:1024940001f0a7008100ea008100e900cf08de0016
:1024a400814078007e0190000200e80010808800de
:1024b4000104e0001400320040a2800051a2800018
:1024c4001ef907008044780060a2800071a2800099
:1024d4001af907000044780080a2800091a28000cd
:1024e40016f9070000407800294f9800384f9800eb
:1024f400404f98006a004700000178003100200036
:10250400000320004802070020a2800031a28000be
:1025140018c0b30002002000031f2400e2f80700e3
:102524000000e000010035000044eb000804e00076
:102534000200320084cea8000100370084cea90036
:1025440040a2800051a2800018c0b3000200200005
:10255400031f2400d4f807000000e0000100350048
:102564000044eb000804e0000200320084aea8003e
:102574000100370084aea90060a2800071a280002f
:1025840018c0b30002002000031f2400c6f807008f
:102594000000e000010035000044eb000804e00006
:1025a40002003200848ea80001003700848ea90046
:1025b40080a2800091a2800018c0b3000200200015
:1025c400031f2400b8f807000000e00001003500f4
:1025d4000044eb000804e00002003200856ea8000d
:1025e40001003700856ea900a0a28000b1a280007e
:1025f40018c0b30002002000031f2400aaf807003b
:102604000000e000010035000044eb000804e00095
:1026140002003200754ea80013ff3700754ea90062
:1026240011ff37000600fa000500210095427800ea
:10263400e0808000f18080004808de0000427800dd
:10264400e0808000f18080004008de008041780056
:10265400e0808000f18080004809dd004800de0051
:1026640000007100c808de0000417800e0808000ae
:10267400f180800000407800054f780014479800ee
:1026840023479800324798004047980090a1800063
:10269400e10f5000c700320000d0bf000080fb00f3
:1026a400cf80de003201200003002000820f5000a2
:1026b400838f5800bc003e00000601002c00370048
:1026c40037003700400037004a0037004b0037001e
:1026d40054003700550037005f0037006d003700a5
:1026e4007b00370087003700950037005c00370017
:1026f40066003700050037000e0037000f00370072
:10270400190037009b003700a50037006011b8009e
:102714006000b80034060700f0c0b30000f0b70052
:102724000e0178005100200000052000be010700c2
:10273400a7003700a8000700a50037006011b80003
:102744000000200001f82b0027060700f0c0b300aa
:1027540000f0b7000e0178005100200000052000b1
:10276400b10107009a0037009b000700980037006a
:102774001c30ef001e30ef006011b8006000b8009c
:102784001906070010c0b30000f0b7000e0178006e
:102794005100200000052000a30107008c00370031
:1027a400e2808000f3808000803e20000100200051
:1027b400800f5100818f59008000360020c0b30083
:1027c40000f0b700820037006011b800000020005c
:1027d40001f823000406070030c0b30000f0b7007e
:1027e4000e01780051002000000520008e01070032
:1027f400770037007800070075003700325c2f003f
:10280400830c24006000b800f705070050c0b30033
:1028140000f0b7000e0178005100200000052000f0
:10282400810107006c00070069003700325c2f004b
:10283400830c2c006000b800eb05070070c0b300e7
:1028440000f0b7000e0178005100200000052000c0
:10285400750107005e0037005f0007005c00370069
:1028640002002000031224006000b800de05070007
:10287400d0c0b30000f0b7000e0178005100200072
:1028840000052000680107005100370052000700ce
:102894004f00370002002000031224006000b8003b
:1028a400d105070090c0b30000f0b700e0808000bd
:1028b400f180800000007800208088000e017800fc
:1028c4005100200000052000570107004000370098
:1028d400208080006101b900e0808000f1808000e8
:1028e4000001510081815900401f20000100200097
:1028f400800f5100818f59003200360036000700e6
:10290400330037000200200003122c006000b800de
:10291400b5050700b0c0b30000f0b700e080800048
:10292400f180800000007800308088000e0178007b
:1029340051002000000520003b010700240037005f
:10294400308080006101b900e0808000f180800067
:102954000001510081815900401f20000100200026
:10296400800f5100818f5900180036001a000700ab
:10297400170037006011b8000000200001f02300a8
:102984009905070030c1b30000f0b7000e017800cc
:102994005100200000052000230107000c0037002f
:1029a4000d0007000a0037000070ef00000000006f
:1029b4000700370000000000050037000000000099
:1029c4000300370000000000010037000000000091
:1029d4000080fa00000006000200fa00881f780058
:1029e4000040eb00004f780080a2800091a280009c
:1029f40018c0b3000200200003222400aaf7070035
:102a04000000e000010035000044eb000804e00091
:102a14001900320060a2800071a2800018c0b300c7
:102a240002002000031f2400a1f707000000e000bb
:102a340001003c000044eb000804e0000e003200fa
:102a440040a2800051a2800018c0b3000200200000
:102a54000322240096f707000000e00001003c0078
:102a64000044eb000804e0000300320020c0b3007f
:102a7400004f78006e00370080a2800091a2800091
:102a840018c0b300020020000322240088f70700c6
:102a94000000e00001003c000044eb000804e000fa
:102aa4001900320060a2800071a2800018c0b30037
:102ab40002002000031f24007df707000000e0004f
:102ac40001003c000044eb000804e0000e0032006a
:102ad40040a2800051a2800018c0b3000200200070
:102ae4000322240070f707000000e0000100350015
:102af4000044eb000804e0000300320010c0b300ff
:102b0400004f78004a00370060a2800071a2800064
:102b140018c0b300020020000322240062f707005b
:102b24000000e000010035000044eb000804e00070
:102b34000300320030c0b300004f78003c0037007f
:102b440080a2800091a2800018c0b300020020007f
:102b54000322240056f707000000e00001003c00b7
:102b64000044eb000804e0001900320060a2800079
:102b740071a2800018c0b30002002000031f2400cb
:102b84004bf707000000e00001003c000044eb00ac
:102b94000804e0000e00320040a2800051a2800030
:102ba40018c0b300020020000322240040f70700ed
:102bb4000000e00001003c000044eb000804e000d9
:102bc400030032000040eb00004f7800180037008b
:102bd40080a2800091a2800018c0b30002002000ef
:102be4000322240030f707000000e0000100350054
:102bf4000044eb000804e0000d00320040a2800015
:102c040051a2800018c0b300020020000322240057
:102c140025f707000000e000010035000044eb0048
:102c24000804e0000200320040c0b300004f780006
:102c34001e4078000004e00003003a0020c0b30006
:102c440008f0b7004d0037001e407800e24f5000f6
:102c540003003a0040c0b30008f0b7004700370053
:102c64001e407800e14f500003003a0060c0b300fa
:102c740008f0b700410037001e407800e44f5000d0
:102c840003003a0020c1b30008f0b7003b0037004e
:102c94001e407800e34f500038003a0020a2800024
:102ca40031a2800018c0b30002002000031f2400da
:102cb400fff607000000e00001003c000044eb00c8
:102cc4000804e0001000320024a2800035a2800035
:102cd400a0a28000b1a2800018c0b3000001be0011
:102ce4000400be00f2f607000000e00001003c0012
:102cf4000044eb000804e0000300320080c0b3008d
:102d040008f0b7001d003700a0a28000b1a2800027
:102d140018c0b30002002000031f2400e4f60700db
:102d24000000e00001003c000044eb000804e00067
:102d340010003200a4a28000b5a2800020a280006e
:102d440031a2800018c0b3000001be000400be0020
:102d5400d7f607000000e00001003c000044eb004f
:102d64000804e00003003200a0c0b30008f0b7007c
:102d740002003700c0c0b30008f0b7004f04780069
:102d84000080fa00000006000a00fa0020079800fc
:102d940031079800420798000040eb00004f78008c
:102da400e0cfb3001e4f68002e0090004880de0084
:102db400004078001e4f68002e009000004078000c
:102dc4001e4f68003e0090004880de0000407800fe
:102dd4001e4f68003e009000004078001e4f6800bf
:102de4000000eb0010079800080037001e00900058
:102df400ce00900000804000104078001e4f680014
:102e04001e0090000000e800100798009e0090004b
:102e14003e009000808f5000f4ff35001e40780083
:102e24000080fa00000006001000fa00889fbe002f
:102e34008a1f78005007980061079800720798006d
:102e44000f0478000f007800800478006e00900072
:102e540066004000200798002e0090008000e900e2
:102e6400310798000000e8000000e8000000d100ed
:102e7400800040000f007800818747000000e800d0
:102e84000000d10000004000400798000040eb0023
:102e9400004f78001e80fb00ce00900000804000b0
:102ea400e1cfb300014878001e4fe8001e80fb000c
:102eb400de009000c888de00814078004e0190005a
:102ec40000004100014878001e4fe8001e80fb000e
:102ed400de009000814078004e0190000000410027
:102ee400014878001e4fe8001e80fb00ee009000b1
:102ef400c888de00814078004e0190000000410047
:102f0400014878001e4fe8001e80fb00ee00900090
:102f1400814078004e019000000041000148780093
:102f24001e4fe8000000eb00100798000000eb00c3
:102f3400100798000c0037001e80fb009e009000d4
:102f44007e01900081004100914078004e01900084
:102f540000004100014878001e4fe8001e00900068
:102f64000000e800100798009e0090006e0090009a
:102f7400808f5000f0ff35001e85fb007e0190001d
:102f8400ee0090005e0090007fff0700ce009000ee
:102f94008a804000804878001e4fe8004e00900070
:102fa400ae009000e30607008907780088077800e0
:102fb4004f0578004f04be000080fa0000000600b0
:102fc4000400fa0020479800d0808000e30f5000ee
:102fd40025003200e30f500007003c00e10f5000d1
:102fe40012003200e10f500017003c000000e00026
:102ff4000800320051003700e50f50003000320065
:10300400e50f50001f003500e60f50003b00320072
:103014004a0037002e409000e24f40004a003a0038
:1030240010002000d08088004a0037002e40900015
:103034000080fb004800dd00a08088002000200004
:10304400d0808800430037002e4090008080fb0031
:10305400a080800000804000a08088003000200014
:10306400d08088003b0037002e4090000080fb0099
:103074004800dd00b080880040002000d080880037
:10308400340037002e4090008080fb00b080800028
:1030940000804000b08088001830ef00b0808000cd
:1030a4000000e0000300340050002000d0808800bd
:1030b4002800370060002000d080880025003700f9
:1030c400c0808000014f210000804000ae4090008d
:1030d40001487800c08080000000e800c0808800bb
:1030e400c1808000b0808000808f500018003500bf
:1030f40060002000d080880016003700ae409000a9
:10310400014f7800b1808000a0808000024f210030
:103114001dff0700104798001e4090009e4f50006e
:1031240004003a00b1808000a0808000024f21009a
:103134000a0007001a30ef00060037001a30ef00cb
:103144000000000003003700000000000100370009
:10315400000000000080fa00000006000600fa00eb
:10316400000f780011079800220798001e007800cd
:1031740021052000810f500012003200210520009b
:10318400810f500004003c0011052000810f500005
:10319400080032001500370001072000810f50009d
:1031a4000c00320011072000810f50000c00320087
:1031b4000e0037002e0090001040780085000700b4
:1031c4000a0037002e0090001040780069000700c4
:1031d400060037002e0090000600070003003700a9
:1031e4002e00900051000700000000000080fa004b
:1031f400000006001a00fa00400f98001100200099
:103204004e089000ff050700008fbe00510020000b
:103214004e089000fb05070020079800310798002e
:10322400910020004e089000f60507004007980022
:1032340051079800d10020004e089000f1050700c6
:103244006007980071079800110120004e08900053
:10325400ec050700000f9800110f980051012000a1
:103264004e089000e7050700200f9800310f9800e2
:103274004e08900010407800e14f500013003a00cf
:103284002e089000be089000809fbe000e0890009b
:103294009e089000809fbe006e009000fe0090008b
:1032a400809fbe004e039000de0390002e0290002b
:1032b400be0290001e0178009e019000804821000b
:1032c40066000700ec875700160037004e08900090
:1032d40010407800e24f500012003a002e0890008f
:1032e400be089000809fbe000e0890009e089000cb
:1032f400809fbe006e009000fe009000809fbe0084
:103304004e039000de0390002e029000be02900057
:103314001e0178009e019000804b21004f000700a1
:10332400ec8757000080fa00000006000a00fa004b
:10333400400798008000eb004e009000b1050700a4
:10334400008fbe00410020004e009000ad05070034
:1033540020079800310798002e019000be019000cc
:103364001e0078009e0090001f0307000080fa00f2
:10337400000006000400fa00204798002e40900048
:103384000004e000030032002e409000e14f5000a2
:1033940009003a00ae409000014f78000e01780019
:1033a40011002000200520009ffe07002e40900001
:1033b4000080fb0090a188002e409000e14f500057
:1033c40002003a00e0c0b30000f0b7000080fa0049
:1033d400000006000200fa00004f78001e80fb0087
:1033e400ea0f50000f003200ea0f500005003c00c5
:1033f400e20f50000e003200e80f500006003200c9
:1034040014003700ee0f50000c003200f00f500093
:103414000d0032000f00370080c0b30000f0b70089
:103424000c003700a0c0b30000f0b700090037005b
:1034340020c0b30000f0b70006003700e0c0b300be
:1034440000f0b7000300370000c1b30000f0b7007c
:10345400000000000080fa00000006000e00fa00e0
:10346400000f78001207980023079800340798008b
:103474004507980056079800670798001e007800d3
:103484001e019000ae0190000288be001e0078006c
:103494003eb99700ceb99700620098007300980077
:1034a4001e0078003e019000ce019000220098009a
:1034b400330098001e0078001eb99700aeb997003b
:1034c40002089800130898001e0078005e0190001e
:1034d400ee01900042009800530098001e0078000e
:1034e4007eb197008eb9970022089800330898009f
:1034f4000080fa00000006001200fa00889fbe0057
:103504006007980072079800030f98006e009000ff
:103514007e0190008e09900002109800131098000c
:103524006e00900060029000f00290006e00900027
:1035340090009000100078000001be000400be005e
:1035440024f607000004be006e009000f000900016
:10355400600090000002be0005f0a2006e00900022
:1035640090009000100078000001be000400be002e
:1035740018f607000802be000001be007e0090009d
:103584008e089000c5040700008fbe006e009000f6
:1035940090009000100078001e0178009e019000b9
:1035a400ebf607006e01900020119800311198008d
:1035b4006e009000400c9000d00c9000020020009f
:1035c400a33724007e0090008e08900001f60700c7
:1035d4000001be000800be0019f507006e0190004e
:1035e40040099800510998006e009000000a90006c
:1035f400900a90006e009000b000900020009000af
:103604000001be000400be00f2f507000004be0085
:103614006e00900090089000000890000002be0028
:1036240005f0a2006e009000b00090002000900011
:103634000001be000400be00e6f507006e01900024
:10364400420b9000d20b90000802be000001be00a5
:103654000600be00910407006e0190004009980026
:10366400510998006e009000400a9000d00a900022
:103674006e009000b0009000200090000001be0099
:103684000400be00b2f607006e01900040119800dd
:10369400511198006e009000f008900060089000ae
:1036a4000001be007e0090008e089000dbf407004d
:1036b40002002000a3372400a5f607002007980085
:1036c400310798006e009000200a9000b00a900024
:1036d4006e009000d0009000400090000001be00f9
:1036e4000400be00bbf507000004be006e0090009d
:1036f400b0089000200890000002be0005f0a2006f
:103704006e009000d0009000400090000001be00c8
:103714000400be00aff507000802be000001be00b1
:103724002e009000be0090005c0407004007980043
:10373400510798006e0090007e0190008e09900061
:1037440062089800730898006e009000d000900002
:10375400400090004e019000de0190007cf60700ce
:103764006e01900060119800711198006e00900035
:1037740020129000b01290006e009000d0109000c3
:10378400401090000001be000400be00acf407002d
:103794000002be006e009000f010900060109000d7
:1037a4000001be000400be00a5f407004f04be00e3
:1037b4000080fa00000006000000fa0044a3800024
:1037c40055a3800000a3800011a380000001be0067
:1037d4000400be0091f4070040a5880051a58800ac
:1037e40064a3800075a3800020a3800031a380001f
:1037f4000001be000400be0088f40700c0a68800d3
:10380400d1a6880040a5800051a580000001be001b
:103814008048210038ff070040a7880051a788008e
:10382400c0a68000d1a680000001be00804b21000c
:1038340031ff070060a7880071a7880060a7800097
:1038440071a7800044a7800055a780000001be0036
:103854000400be00e40107000080fa000000060036
:103864004800fa0040a4800051a480000001be007a
:103874008000eb000e0078004904070060a480007b
:1038840071a480000001be00410020000e007800f9
:103894004304070080a4800091a480000001be00be
:1038a400810020000e0078003d040700a0a48000e1
:1038b400b1a480000001be00c10020000e00780009
:1038c40037040700c0a48000d1a480000001be001a
:1038d400010120000e00780031040700e0a48000fc
:1038e400f1a480000001be00410120000e00780018
:1038f4002b04070060a5800071a580000001be00b4
:10390400810120000e0078002504070080a58000b6
:1039140091a580000001be00c10120000e007800c6
:103924001f040700a0a58000b1a580000001be000f
:10393400010220000e00780019040700c0a58000d1
:10394400d1a580000001be00410220000e007800d5
:1039540013040700e0a58000f1a580000001be006b
:10396400810220000e0078000d04070000a68000ec
:1039740011a680000001be00c10220000e007800e4
:103984000704070020a6800031a680000001be00c5
:10399400010320000e0078000104070040a6800007
:1039a40051a680000001be00410320000e007800f3
:1039b400fb03070060a6800071a680000001be0022
:1039c400810320000e007800f5030700e0a68000c4
:1039d400f1a680000001be00c10320000e007800a3
:1039e400ef03070000a7800011a780000001be00bc
:1039f400010420000e007800e903070020a78000de
:103a040031a780000001be00410420000e007800b0
:103a1400e30307000e017800810420000007200062
:103a240001fd07000080fa00000006002000fa00f3
:103a340040a3800051a380000001be008000eb0081
:103a44000e007800d603070060a3800071a38000f5
:103a54000001be00410020000e007800d0030700e2
:103a640000a3800011a380000001be00810020009b
:103a74000e007800ca03070020a3800031a3800051
:103a84000001be00c10020000e007800c40307003e
:103a940040a5800051a580000001be000101200066
:103aa4000e007800be030700c0a68000d1a68000e7
:103ab4000001be00410120000e007800b803070099
:103ac40040a7800051a780000001be0081012000b2
:103ad4000e007800b203070060a7800071a7800081
:103ae4000001be00c10120000e007800ac030700f5
:103af4000e0178000102200010072000cafc070014
:103b04000080fa00000006000000fa0005e1a900a8
:103b14000421a9000068a9002068a80005e1a80004
:103b240000002000a1372400280007000080fa00cc
:103b3400000006000000fa001fe1a9001e21a900f0
:103b44000368a9002368a8001fe1a8000000200062
:103b5400a1472400910007000080fa00000006003d
:103b64000000fa0013e1a90011e1a9001061a80006
:103b74001021a90081088000f0fc2f000080600063
:103b840080088800707220005008880000e020003f
:103b94003008880030392000700888000070280040
:103ba400600888002142800080ff2f0000806000b0
:103bb4000000a000204288000108a9002108a800f4
:103bc40011e1a8000080fa00000006000400fa00d9
:103bd400881f7800008fbe0021088000f0fc2f00b1
:103be40000806000200888001e0178009e0190007b
:103bf400001c2e0041c6240076f4070018c0b30050
:103c040002f02f00f377240029f307000000e000fe
:103c140001003c000044eb000804e00054003200c2
:103c240021088000f0fc2f00008060000040a0000c
:103c3400200888001e0178009e019000001c2e00c0
:103c440041c6240063f4070002002000031024008e
:103c540060f4070018c0b30002f02f00f3772400cb
:103c640013f307000000e00001003c000044eb00f7
:103c74000804e0003200320021088000f0fc2f002c
:103c8400008060000050a000200888001e01780019
:103c94009e019000001c2e0041c624004df4070034
:103ca40002002000032824004af4070018c0b300cf
:103cb40002f02f00f3772400fdf207000000e0007b
:103cc40001003c000044eb000804e0001000320056
:103cd40021088000000320000100700020088800f3
:103ce4001e0178009e019000001c2e0041c6240095
:103cf40038f40700020020000338240035f40700dc
:103d0400edf207000000780010088800200037005a
:103d14001e0178009e019000001c2e0041c6240064
:103d24002cf40700020020000328240029f40700d3
:103d3400e1f2070000007800100888001400370042
:103d44001e0178009e019000001c2e0041c6240034
:103d540020f4070002002000031024001df40700d3
:103d6400d5f207000000780010088800080037002a
:103d74001e0178009e019000001c2e0041c6240004
:103d840014f40700ccf20700000078001008880043
:103d94004f0478000080fa00000006000400fa00d6
:103da400881f7800008fbe00f1088000f0fc2f000f
:103db40000806000f00888001e0178009e019000d9
:103dc400001c2e0041c6240002f4070018c0b300f2
:103dd40002f02f00f3772400b5f207000000e000a2
:103de40001003c000044eb000804e00054003200f1
:103df400f1088000f0fc2f00008060000040a0006b
:103e0400f00888001e0178009e019000001c2e001e
:103e140041c62400eff30700020020000310240031
:103e2400ecf3070018c0b30002f02f00f37724006e
:103e34009ff207000000e00001003c000044eb009a
:103e44000804e00032003200f1088000f0fc2f008a
:103e5400008060000050a000f00888001e01780077
:103e64009e019000001c2e0041c62400d9f30700d7
:103e74000200200003282400d6f3070018c0b30072
:103e840002f02f00f377240089f207000000e0001d
:103e940001003c000044eb000804e0001000320084
:103ea400f10880000003200001007000f008880081
:103eb4001e0178009e019000001c2e0041c62400c3
:103ec400c4f307000200200003382400c1f30700f4
:103ed40079f2070000007800d0088800200037003d
:103ee4001e0178009e019000001c2e0041c6240093
:103ef400b8f307000200200003282400b5f30700ec
:103f04006df2070000007800d00888001400370024
:103f14001e0178009e019000001c2e0041c6240062
:103f2400acf307000200200003102400a9f30700eb
:103f340061f2070000007800d0088800080037000c
:103f44001e0178009e019000001c2e0041c6240032
:103f5400a0f3070058f2070000007800d00888009a
:103f64004f0478000080fa00000006000000fa0008
:103f74001c30ef001e30ef000080fa000000060045
:103f84000000fa001160800080ff2f0000806000b4
:103f94001060880000962000206088001161800075
:103fa40000c02000010070001061880023cca8002c
:103fb40023eca800300020002061880011628000fa
:103fc40000c02000010070001062880043cca800eb
:103fd40043eca800300020002062880001eca80017
:103fe4000080fa00000006000800fa00008fbe00fe
:103ff40022079800330798001e0178009e01900064
:1040040042a3880053a388002e019000be019000b3
:1040140062a3880073a388009218240003de23009f
:104024002e009000be00900049f407001e017800a5
:104034009e01900082f2070002002000c3202c00a1
:1040440043f40700e0a18800f1a18800921824003d
:1040540003de23002e009000be0090003cf4070015
:104064000001be001e0078009e0090006bf2070065
:1040740002002000c320240035f40700a0a188001a
:10408400b1a18800e0a18000f1a18000040020001b
:10409400852c240002002000832c2c00ff01070043
:1040a400a0a18000b1a1800004002000852c240080
:1040b40002002000832c2c00f80107000080fa0085
:1040c400000006000000fa00889fbe00c4a1800022
:1040d400d5a18000a0a18000b1a1800018c0b300c8
:1040e4000001be000400be00eff107000000e00084
:1040f400010035000044eb000804e0000b0032002e
:10410400a8a18000b9a18000c0a18000d1a1800035
:1041140002002000030a240049f207000801be003f
:10412400c6010700c0a18800d1a18800c4a18000f5
:10413400d5a18000a0a18000b1a1800018c0b30067
:104144000001be000400be00d9f107000000e00039
:1041540001003c000044eb000804e0000b003200c6
:10416400a8a18000b9a18000c0a18000d1a18000d5
:1041740002002000030a240028f207000801be0000
:1041840096010700c0a18800d1a18800c0a18000c9
:10419400d1a1800018c0b3006011b800c4f10700b9
:1041a4000000e00001003c000044eb000804e000d3
:1041b4000e003200c0a18000d1a1800002002000c6
:1041c400031c2400e2f307000200200083242400df
:1041d4001bf20700d9f10700000078003061880065
:1041e40020032000706188000e00370020032000a7
:1041f40030618800c0a18000d1a1800001f0a2003c
:1042040002002000031c2400d1f307000200200058
:10421400832424000af20700c8f107000000780094
:104224007061880004a2800015a28000e0a18000d3
:10423400f1a1800018c0b3000001be000400be005c
:1042440099f107000000e000010035000044eb0094
:104254000804e0000b003200e8a18000f9a180000e
:1042640000a2800011a2800002002000030a2400a2
:10427400f3f107000801be007001070000a28800e6
:1042840011a2880004a2800015a28000e0a1800091
:10429400f1a1800018c0b3000001be000400be00fc
:1042a40083f107000000e00001003c000044eb0043
:1042b4000804e0000b003200e8a18000f9a18000ae
:1042c40000a2800011a2800002002000030a240042
:1042d400d2f107000801be004001070000a28800d7
:1042e40011a2880000a2800011a2800018c0b300af
:1042f4006011b8006ef107000000e00001003d000d
:104304000044eb000804e0000e00320000a280002c
:1043140011a2800002002000031c24008cf307007b
:104324000200200083242400c5f1070083f1070064
:10433400000078003062880020032000706288004a
:104344000e003700200320003062880000a28000a5
:1043540011a2800001f0a20002002000031c24002e
:104364007bf307000200200083242400b4f107003b
:1043740072f1070000007800706288004f04be00ec
:104384000080fa00000006000000fa00c301a80043
:104394000080eb00e00e88000080eb00f00e880047
:1043a400c1e1a8000080fa00000006000000fa0045
:1043b400c305a8000080eb00e02e88000080eb001d
:1043c400f02e8800c1e5a8000080fa000000060075
:1043d4001800fa00889fbe008a9fbe0052808000a9
:1043e40063808000028fbe00728080008380800022
:1043f4002207980033079800300e80008000eb00fd
:104404004007980051079800500e80008000eb0090
:10441400c000dd00000020004e019000de0190008d
:10442400020040008380480040079800510798002c
:10443400302e80008000eb00600798007107980020
:10444400502e80008000eb00c000dd000000200042
:104454006e019000fe01900002004000838048003d
:1044640060079800710798004e009000de009000ed
:104474004df10700c2532e007378230034f3070074
:1044840050808800618088006e009000fe009000db
:1044940045f10700c2532e0073782b002cf307005c
:1044a4007080880081808800508080006180800056
:1044b4001e0178009e01900058f10700000f98003b
:1044c400110f980070808000818080002e01900080
:1044d400be01900051f10700200f9800310f9800a1
:1044e40002002000a33724000e0890009e089000cc
:1044f40017f30700c0a28800d1a2880002002000a0
:10450400a33724002e089000be08900010f3070083
:10451400e0a28800f1a28800c4a28000d5a2800095
:10452400e0a28000f1a280000001be000400be00f1
:1045340043f10700020020000300240025f20700d5
:1045440000a3880011a38800c4a28000d5a2800023
:10455400e0a28000f1a280000001be000400be00c1
:104564002ef107009218240003e6230019f2070035
:1045740020a3880031a38800e0a38000f1a3800079
:1045840080a3880091a3880000a4800011a4800067
:10459400a0a38800b1a3880020a4800031a48000d7
:1045a400c0a38800d1a3880088a3800099a38000b9
:1045b4000aa380001ba3800020a4800031a48000f3
:1045c40003f507000001be000a00be00e0f2070088
:1045d40002002000a3372400fef107000001be0002
:1045e4000800be0016f10700e0a38800f1a38800cc
:1045f400a8a38000b9a380000aa380001ba38000a5
:1046040020a4800031a480006af507000001be00e8
:104614000a00be00cef2070002002000a3372400e7
:10462400ecf107000001be000800be0004f1070021
:1046340000a4880011a48800c8a38000d9a3800026
:1046440020a3800031a3800002002000a3372400af
:10465400e0f107000001be000800be00f8f007000a
:1046640020a4880031a4880020a4800031a4800004
:1046740018c0b300b2fd2000930424008cf007009e
:104684000000e00001003c000044eb000804e000ee
:104694000700320020a4800031a48000b2fd200075
:1046a400930c2400ddf0070020a4880031a48800c6
:1046b40020a4800031a4800018c0b300b2fd200003
:1046c40093042c0078f007000000e000010035009e
:1046d4000044eb000804e0000700320020a480003e
:1046e40031a48000b2fd2000930c2400d4f0070014
:1046f40020a4880031a488004f05be004f04be00ea
:104704000080fa00000006001800fa00e080800033
:10471400f18080000001be008000eb000e007800f4
:10472400d1000700e0a38000f1a380000001be00d7
:10473400410020000e0078009900070000a48000ca
:1047440011a480000001be00810020000e0078004a
:104754009300070020a4800031a480000001be0063
:10476400c10020000e0078008d0007000e017800c3
:104774000101200010062000abf907000080fa00b8
:10478400000006000400fa00881f7800008fbe00b5
:1047940018c0b3006011b8001e0078009e0090009d
:1047a40043f007000000e00001003d000044eb007e
:1047b4000804e000030032001e0078009e00900010
:1047c400030037001e0078009e00900001f0a20054
:1047d4004f0478000080fa00000006000800fa0088
:1047e400881f7800008fbe002207980033079800c6
:1047f40018c0b3002e019000be0190001e00780086
:104804009e0090002af007000000e00001003c0038
:104814000044eb000804e000030032001e007800ae
:104824009e009000020037002e009000be00900011
:104834004f0478000080fa00000006000800fa0027
:10484400881f7800008fbe00220798003307980065
:1048540018c0b3002e019000be0190001e00780025
:104864009e00900010f007000000e00001003500f9
:104874000044eb000804e000030032001e0078004e
:104884009e009000020037002e009000be009000b1
:104894004f0478000080fa00000006000c00fa00c3
:1048a400881f7800008fbe00220798003307980005
:1048b400440798005507980018c0b3004e019000b3
:1048c400de0190001e0078009e009000f8ef0700c3
:1048d4000000e00001003c000044eb000804e0009c
:1048e400040032004e019000de019000028fbe00f1
:1048f4000e00370018c0b3002e019000be019000d6
:104904001e0078009e009000e7ef07000000e00022
:10491400010035000044eb000804e000030032000d
:104924002e019000be019000028fbe001e00780090
:104934009e0090004f0478000080fa0000000600fa
:104944000400fa00008fbe00b2fd2000930424008e
:104954001e0078009e0090001ef107000200200057
:1049640043332400faf107000080fa000000060037
:104974000400fa00008fbe00b2fd2000930424005e
:104984001e0078009e009000f1f107000200200054
:10499400433324000ff107000080fa0000000600f2
:1049a4000c00fa002007980031079800420798008d
:1049b4005307980068004700100798000000eb00b8
:1049c400000f78000a0037003e0090001e004000ef
:1049d400ae009000008040009e0078001e01900010
:1049e4008100410091407800014878001e0fe800e2
:1049f4001e007800e30f5000f3ff34000080fa003b
:104a0400000006000c00fa004007980051079800c7
:104a140064004700100798000000eb00000f7800c6
:104a24000a0037001e0078009e00900000804000bd
:104a3400de0090009e8040004e0190008100410005
:104a440091407800014878001e0fe8001e007800ad
:104a5400e30f5000f3ff34002e009000be009000de
:104a64000080fa00000006000c00fa0020079800fd
:104a740031079800420798005307980068004700e0
:104a8400100798000000eb00000f78000b003700bf
:104a94003e0090001e004000ae00900000804000e8
:104aa400320020009e0051001e0190008100410050
:104ab40091407800014878001e0fe8001e0078003d
:104ac400e30f5000f2ff34000080fa0000000600fb
:104ad4000c00fa002007980031079800420798005c
:104ae4005307980068004700100798000000eb0087
:104af400000f78000a0037003e0090001e004000be
:104b0400ae009000008040009e0078001e019000de
:104b14008100410091407800014878001e0fe800b0
:104b24001e007800e70f5000f3ff34000080fa0005
:104b3400000006000600fa001007980021079800fc
:104b44000040eb00004f78005c000700ae009000ce
:104b5400810f5000110034000040eb00004f78003a
:104b6400060037001e80fb009e009000008040007d
:104b7400104078000b0007001e4fe8009e80fb00e9
:104b84002e009000808f5000f6ff35002f000700a4
:104b94000000e00001003a00230007000080fa0052
:104ba400000006000200fa00004f78001081800027
:104bb40001032100008040001e487800108180001d
:104bc4000000e8001081880011818000f01f20009f
:104bd400808f5000010034002230ef000080fa0082
:104be400000006000200fa00208180000103210079
:104bf4000080400010407800004f78002081800041
:104c04000000e8002081880021818000f01f20003e
:104c1400808f5000010034002430ef001e407800e3
:104c24000080fa00000006000200fa0010c0b30081
:104c340026f0b700ebff0700004f78001e80fb0052
:104c4400201188000080fa00000006000000fa002d
:104c540026d0bf000080fb000080fa0000000600a0
:104c64000200fa000000eb00000f780011818000c0
:104c740020818000808f5000040034001181800066
:104c840020818000008f50000900370011818000ce
:104c940020818000808f500005003d00218180002c
:104ca400108180000080500001202000010f40008e
:104cb4001e0078000080fa00000006000000fa00e0
:104cc400e7ff070001202000008050000080fa0068
:104cd400000006000000fa00413a800000fc2f00aa
:104ce400008060007001b300403a8800313a8000cf
:104cf40000e02f008080600080052000010070002b
:104d0400303a8800213a8000f0f32f0000806000e0
:104d1400203a8800213a800000fe2f0000806000c5
:104d24000000a000203a8800120020008007200024
:104d3400a10920003374200080497800814978005b
:104d440082497800103a8000000178000200a00037
:104d5400600420007105200023742000804978003d
:104d6400814978008249780000000000113a8000ef
:104d7400000027008080600000002100808f500028
:104d8400faff3a005927a800c13a800080ff2f009b
:104d9400008060000000a000c03a8800d03a800083
:104da4007000b300d03a8800c13a8000f0f12f00bf
:104db40080806000000c200001007000c03a880070
:104dc40059a7a80059e7a80000000000c13a8000d4
:104dd40000002400008060000000e000fbff3200bf
:104de40000000000113a80000002200000806000f2
:104df4000000e000fbff32000080fa000000060023
:104e04000000fa0021e3a9002143a8000119800051
:104e1400f0cf2f0000806000001988002043a90013
:104e240001198000000e20000100700000198800a4
:104e340011198000f0ff2100008060001019880023
:104e44002343a80011198000f0cf2f0000806000d8
:104e5400101988001119800030f82f0000806000bc
:104e64000040a000101988002203a9002223a900f1
:104e740025e3a900f0c0b30024e3b70021198000a2
:104e8400f00f2e008080600000f020000100700010
:104e9400201988003303a9001e0ea8001f0ea800c5
:104ea4001f2ea8001f4ea8001f6ea8001f8ea8006a
:104eb4003003a8003103a8003123a8003143a8001f
:104ec4003163a8004119800000fe2f0000806000bb
:104ed4004019880028e3a90001a8a90021a8a80076
:104ee40021e3a8000080fa00000006000000fa0098
:104ef4002023a8000080fa00000006000000fa0049
:104f0400005721000080fa00000006000000fa00ab
:104f14002dd0bf000080fa00000006000000fa0057
:104f24002d70ef000080fa00000006000200fa0075
:104f3400004f7800420007000000e0000c0034003d
:104f44004081800001232100008040001e48780039
:104f5400408180000000e800408188004181800099
:104f6400f01f2000808f5000010034002830ef0033
:104f74000080fa00000006000200fa005081800060
:104f8400012321000080400010407800004f780089
:104f9400508180000000e800508188005181800029
:104fa400f01f2000808f5000010034002a30ef00f1
:104fb4001e4078000080fa00000006000000fa009d
:104fc4004181800050818000808f500002003200b7
:104fd40010c0b300010037000040eb000080fa006d
:104fe400000006000200fa000000eb00000f780049
:104ff4004181800050818000808f50000400340083
:105004004181800050818000008f500009003700ea
:105014004181800050818000808f500005003d0058
:1050240051818000408180000080500001202000d8
:10503400010f40001e0078000080fa000000060006
:105044000000fa00e7ff0700012020000080500064
:105054000080fa00000006000000fa000e2eef00a7
:105064001e2eef003e2eef002e2eef004e2eef00f0
:105074006e2eef0080cea90080aea900808ea9001c
:10508400816ea900714ea90091eea900000ea9003d
:10509400012ea900014ea900706ea9002f0007007f
:1050a4002136800000f82f0080806000e00420009a
:1050b40001007000203688004134800000fc2f007d
:1050c400008060000000a0004034880001368000a9
:1050d40000f82f008080600010062000010070009e
:1050e4000036880001368000f00f280080806000c0
:1050f400001027000100700000368800e1358000b0
:1051040000f82f0080806000e0072000010070009c
:10511400e0358800e1358000f00f280080806000d1
:1051240000c0270001007000e0358800020007007d
:105134000080fa00000006000000fa00217420003c
:1051440062042000730520008248780083487800b8
:1051540042c7a8000080fa00000006000000fa0020
:105164002174200062042000730520008248780026
:105174008348780042c7a9000080fa0000000600b6
:105184000000fa002002a9000111800090ff2f0006
:10519400008060000011880020a2a9002062a800fd
:1051a400100820004011880023a2a90023e2a900ce
:1051b4000188a9002188a80011118000f0f32f00b4
:1051c40000806000101188000168a9002168a8000f
:1051d40021e2a8002342a8000080fa000000060093
:1051e4000600fa0010079800210798000040eb0021
:1051f400004f78000040eb00004f78000e003700ad
:1052040000000000111180000020200000806000d8
:105214000000e000fbff3a001e0090001040780000
:105224000080fb00201188001e0090000000e800b0
:10523400100798001e4fe8009e80fb002e0090008f
:10524400808f5000eeff35000080fa000000060059
:020000040000fa
:10525400001000000a000000800000001c10000084
:10526400060000008000000030140000c0000000b0
:1052740080000000701500000a000000800000009b
:105284002c1000000200000080000000301000001c
:105294000002000080000000221000000600000050
:1052a40080000000301200000002000080000000b6
:1052b400281000000400000080000000f01400002a
:1052c40080000000800000001410000008000000ae
:1052d400800000000a1000000a00000080000000a6
:1052e4002e100000020000008000000000000000fa
:020000040000fa
:0200000401f009
:04000800cfffff0027
:020000040000fa
:0200000401f009
:04000c00f9ffff00f9
:020000040000fa
:0200000401f009
:040010005bffff0093
:020000040000fa
:0200000401f009
:040014007fffff006b
:020000040000fa
:0200000401f009
:04001800cfffff0017
:020000040000fa
:0200000401f009
:04001c00deffff0004
:020000040000fa
:0200000401f009
:04002000cfffff000f
:00000001FF
